{
  "_format": "hh-sol-artifact-1",
  "contractName": "AuctionFactory",
  "sourceName": "contracts/factory/AuctionFactory.sol",
  "abi": [
    {
      "inputs": [
        {
          "internalType": "address",
          "name": "_priceOracle",
          "type": "address"
        }
      ],
      "stateMutability": "nonpayable",
      "type": "constructor"
    },
    {
      "inputs": [
        {
          "internalType": "address",
          "name": "owner",
          "type": "address"
        }
      ],
      "name": "OwnableInvalidOwner",
      "type": "error"
    },
    {
      "inputs": [
        {
          "internalType": "address",
          "name": "account",
          "type": "address"
        }
      ],
      "name": "OwnableUnauthorizedAccount",
      "type": "error"
    },
    {
      "anonymous": false,
      "inputs": [
        {
          "indexed": true,
          "internalType": "address",
          "name": "auction",
          "type": "address"
        },
        {
          "indexed": true,
          "internalType": "address",
          "name": "creator",
          "type": "address"
        }
      ],
      "name": "AuctionCreated",
      "type": "event"
    },
    {
      "anonymous": false,
      "inputs": [
        {
          "indexed": true,
          "internalType": "address",
          "name": "previousOwner",
          "type": "address"
        },
        {
          "indexed": true,
          "internalType": "address",
          "name": "newOwner",
          "type": "address"
        }
      ],
      "name": "OwnershipTransferred",
      "type": "event"
    },
    {
      "inputs": [
        {
          "internalType": "uint256",
          "name": "",
          "type": "uint256"
        }
      ],
      "name": "allAuctionContracts",
      "outputs": [
        {
          "internalType": "address",
          "name": "",
          "type": "address"
        }
      ],
      "stateMutability": "view",
      "type": "function"
    },
    {
      "inputs": [
        {
          "internalType": "uint256",
          "name": "index",
          "type": "uint256"
        }
      ],
      "name": "allAuctions",
      "outputs": [
        {
          "internalType": "address",
          "name": "",
          "type": "address"
        }
      ],
      "stateMutability": "view",
      "type": "function"
    },
    {
      "inputs": [],
      "name": "allAuctionsLength",
      "outputs": [
        {
          "internalType": "uint256",
          "name": "",
          "type": "uint256"
        }
      ],
      "stateMutability": "view",
      "type": "function"
    },
    {
      "inputs": [],
      "name": "createAuction",
      "outputs": [
        {
          "internalType": "address",
          "name": "auction",
          "type": "address"
        }
      ],
      "stateMutability": "nonpayable",
      "type": "function"
    },
    {
      "inputs": [
        {
          "internalType": "address",
          "name": "_auction",
          "type": "address"
        }
      ],
      "name": "isAuction",
      "outputs": [
        {
          "internalType": "bool",
          "name": "",
          "type": "bool"
        }
      ],
      "stateMutability": "view",
      "type": "function"
    },
    {
      "inputs": [
        {
          "internalType": "address",
          "name": "",
          "type": "address"
        }
      ],
      "name": "isAuctionContract",
      "outputs": [
        {
          "internalType": "bool",
          "name": "",
          "type": "bool"
        }
      ],
      "stateMutability": "view",
      "type": "function"
    },
    {
      "inputs": [],
      "name": "owner",
      "outputs": [
        {
          "internalType": "address",
          "name": "",
          "type": "address"
        }
      ],
      "stateMutability": "view",
      "type": "function"
    },
    {
      "inputs": [],
      "name": "priceOracle",
      "outputs": [
        {
          "internalType": "address",
          "name": "",
          "type": "address"
        }
      ],
      "stateMutability": "view",
      "type": "function"
    },
    {
      "inputs": [],
      "name": "renounceOwnership",
      "outputs": [],
      "stateMutability": "nonpayable",
      "type": "function"
    },
    {
      "inputs": [
        {
          "internalType": "address",
          "name": "newOracle",
          "type": "address"
        }
      ],
      "name": "setPriceOracle",
      "outputs": [],
      "stateMutability": "nonpayable",
      "type": "function"
    },
    {
      "inputs": [],
      "name": "template",
      "outputs": [
        {
          "internalType": "address",
          "name": "",
          "type": "address"
        }
      ],
      "stateMutability": "view",
      "type": "function"
    },
    {
      "inputs": [
        {
          "internalType": "address",
          "name": "newOwner",
          "type": "address"
        }
      ],
      "name": "transferOwnership",
      "outputs": [],
      "stateMutability": "nonpayable",
      "type": "function"
    }
  ],
  "bytecode": "0x608060405234801561001057600080fd5b5060405161096d38038061096d83398101604081905261002f91610125565b338061005557604051631e4fbdf760e01b81526000600482015260240160405180910390fd5b61005e816100c9565b50600380546001600160a01b0319166001600160a01b03831617905560405161008690610119565b604051809103906000f0801580156100a2573d6000803e3d6000fd5b50600480546001600160a01b0319166001600160a01b039290921691909117905550610155565b600080546001600160a01b038381166001600160a01b0319831681178455604051919092169283917f8be0079c531659141344cd1fd0a4f28419497f9722a3daafe3b4186f6b6457e09190a35050565b60bf806108ae83390190565b60006020828403121561013757600080fd5b81516001600160a01b038116811461014e57600080fd5b9392505050565b61074a806101646000396000f3fe608060405234801561001057600080fd5b50600436106100b45760003560e01c8063715018a611610071578063715018a614610168578063856516e8146101705780638da5cb5b146101835780638ebde50014610194578063f2fde38b146101c0578063f5811447146101d357600080fd5b8063165c5881146100b95780632630c12f146100e95780634077503a146100fc578063435a34541461010d578063530e784f146101405780636f2ddd9314610155575b600080fd5b6100cc6100c7366004610686565b6101db565b6040516001600160a01b0390911681526020015b60405180910390f35b6003546100cc906001600160a01b031681565b6001546040519081526020016100e0565b61013061011b36600461069f565b60026020526000908152604090205460ff1681565b60405190151581526020016100e0565b61015361014e36600461069f565b610258565b005b6004546100cc906001600160a01b031681565b610153610282565b6100cc61017e366004610686565b610296565b6000546001600160a01b03166100cc565b6101306101a236600461069f565b6001600160a01b031660009081526002602052604090205460ff1690565b6101536101ce36600461069f565b6102c0565b6100cc6102fe565b600154600090821061022a5760405162461bcd60e51b8152602060048201526013602482015272496e646578206f7574206f6620626f756e647360681b60448201526064015b60405180910390fd5b6001828154811061023d5761023d6106cf565b6000918252602090912001546001600160a01b031692915050565b610260610609565b600380546001600160a01b0319166001600160a01b0392909216919091179055565b61028a610609565b6102946000610636565b565b600181815481106102a657600080fd5b6000918252602090912001546001600160a01b0316905081565b6102c8610609565b6001600160a01b0381166102f257604051631e4fbdf760e01b815260006004820152602401610221565b6102fb81610636565b50565b600454604051733d602d80600a3d3981f3363d3d373d3d3d363d7360601b815260609190911b6bffffffffffffffffffffffff1916601482018190526e5af43d82803e903d91602b57fd5bf360881b602883015260009160378184f09250506001600160a01b0382166103b35760405162461bcd60e51b815260206004820152601760248201527f41756374696f6e206372656174696f6e206661696c65640000000000000000006044820152606401610221565b6003546040516001600160a01b03918216602482015260009184169060440160408051601f198184030181529181526020820180516001600160e01b031663189acdbd60e31b1790525161040791906106e5565b6000604051808303816000865af19150503d8060008114610444576040519150601f19603f3d011682016040523d82523d6000602084013e610449565b606091505b505090508061049a5760405162461bcd60e51b815260206004820152601d60248201527f41756374696f6e20696e697469616c697a6174696f6e206661696c65640000006044820152606401610221565b6040513360248201526001600160a01b0384169060440160408051601f198184030181529181526020820180516001600160e01b031663f2fde38b60e01b179052516104e691906106e5565b6000604051808303816000865af19150503d8060008114610523576040519150601f19603f3d011682016040523d82523d6000602084013e610528565b606091505b5050809150508061057b5760405162461bcd60e51b815260206004820152601960248201527f4f776e657273686970207472616e73666572206661696c6564000000000000006044820152606401610221565b6001805480820182557fb10e2d527612073b26eecdfd717e6a320cf44b4afac2b0732d9fcbe2b7fa0cf60180546001600160a01b0319166001600160a01b038616908117909155600081815260026020526040808220805460ff1916909417909355915133927f0bdb7849ed0b0249d0f995067a2ca77769f68ab4c654931e262676effeb395f291a3505090565b6000546001600160a01b031633146102945760405163118cdaa760e01b8152336004820152602401610221565b600080546001600160a01b038381166001600160a01b0319831681178455604051919092169283917f8be0079c531659141344cd1fd0a4f28419497f9722a3daafe3b4186f6b6457e09190a35050565b60006020828403121561069857600080fd5b5035919050565b6000602082840312156106b157600080fd5b81356001600160a01b03811681146106c857600080fd5b9392505050565b634e487b7160e01b600052603260045260246000fd5b6000825160005b8181101561070657602081860181015185830152016106ec565b50600092019182525091905056fea2646970667358221220f2badf0c13f522a6249b2c635a75ef4b7e6ca171ce3e5412ce075ee8690a256d64736f6c634300081400336080604052348015600f57600080fd5b5060a18061001e6000396000f3fe6080604052348015600f57600080fd5b506004361060285760003560e01c8063c4d66de814602d575b600080fd5b603b6038366004603d565b50565b005b600060208284031215604e57600080fd5b81356001600160a01b0381168114606457600080fd5b939250505056fea2646970667358221220663d1b30ab82eea66fdc782e5406db40c65f033cba34d224913f62843bf520ac64736f6c63430008140033",
  "linkReferences": {},
  "deployedLinkReferences": {}
}