{
  "_format": "hh-sol-artifact-1",
  "contractName": "AuctionNFT",
  "sourceName": "contracts/auction/AuctionNFT.sol",
  "abi": [
    {
      "inputs": [
        {
          "internalType": "string",
          "name": "name",
          "type": "string"
        },
        {
          "internalType": "string",
          "name": "symbol",
          "type": "string"
        },
        {
          "internalType": "string",
          "name": "baseTokenURI",
          "type": "string"
        }
      ],
      "stateMutability": "nonpayable",
      "type": "constructor"
    },
    {
      "inputs": [
        {
          "internalType": "address",
          "name": "sender",
          "type": "address"
        },
        {
          "internalType": "uint256",
          "name": "tokenId",
          "type": "uint256"
        },
        {
          "internalType": "address",
          "name": "owner",
          "type": "address"
        }
      ],
      "name": "ERC721IncorrectOwner",
      "type": "error"
    },
    {
      "inputs": [
        {
          "internalType": "address",
          "name": "operator",
          "type": "address"
        },
        {
          "internalType": "uint256",
          "name": "tokenId",
          "type": "uint256"
        }
      ],
      "name": "ERC721InsufficientApproval",
      "type": "error"
    },
    {
      "inputs": [
        {
          "internalType": "address",
          "name": "approver",
          "type": "address"
        }
      ],
      "name": "ERC721InvalidApprover",
      "type": "error"
    },
    {
      "inputs": [
        {
          "internalType": "address",
          "name": "operator",
          "type": "address"
        }
      ],
      "name": "ERC721InvalidOperator",
      "type": "error"
    },
    {
      "inputs": [
        {
          "internalType": "address",
          "name": "owner",
          "type": "address"
        }
      ],
      "name": "ERC721InvalidOwner",
      "type": "error"
    },
    {
      "inputs": [
        {
          "internalType": "address",
          "name": "receiver",
          "type": "address"
        }
      ],
      "name": "ERC721InvalidReceiver",
      "type": "error"
    },
    {
      "inputs": [
        {
          "internalType": "address",
          "name": "sender",
          "type": "address"
        }
      ],
      "name": "ERC721InvalidSender",
      "type": "error"
    },
    {
      "inputs": [
        {
          "internalType": "uint256",
          "name": "tokenId",
          "type": "uint256"
        }
      ],
      "name": "ERC721NonexistentToken",
      "type": "error"
    },
    {
      "inputs": [
        {
          "internalType": "address",
          "name": "owner",
          "type": "address"
        }
      ],
      "name": "OwnableInvalidOwner",
      "type": "error"
    },
    {
      "inputs": [
        {
          "internalType": "address",
          "name": "account",
          "type": "address"
        }
      ],
      "name": "OwnableUnauthorizedAccount",
      "type": "error"
    },
    {
      "anonymous": false,
      "inputs": [
        {
          "indexed": true,
          "internalType": "address",
          "name": "owner",
          "type": "address"
        },
        {
          "indexed": true,
          "internalType": "address",
          "name": "approved",
          "type": "address"
        },
        {
          "indexed": true,
          "internalType": "uint256",
          "name": "tokenId",
          "type": "uint256"
        }
      ],
      "name": "Approval",
      "type": "event"
    },
    {
      "anonymous": false,
      "inputs": [
        {
          "indexed": true,
          "internalType": "address",
          "name": "owner",
          "type": "address"
        },
        {
          "indexed": true,
          "internalType": "address",
          "name": "operator",
          "type": "address"
        },
        {
          "indexed": false,
          "internalType": "bool",
          "name": "approved",
          "type": "bool"
        }
      ],
      "name": "ApprovalForAll",
      "type": "event"
    },
    {
      "anonymous": false,
      "inputs": [
        {
          "indexed": true,
          "internalType": "address",
          "name": "previousOwner",
          "type": "address"
        },
        {
          "indexed": true,
          "internalType": "address",
          "name": "newOwner",
          "type": "address"
        }
      ],
      "name": "OwnershipTransferred",
      "type": "event"
    },
    {
      "anonymous": false,
      "inputs": [
        {
          "indexed": true,
          "internalType": "address",
          "name": "from",
          "type": "address"
        },
        {
          "indexed": true,
          "internalType": "address",
          "name": "to",
          "type": "address"
        },
        {
          "indexed": true,
          "internalType": "uint256",
          "name": "tokenId",
          "type": "uint256"
        }
      ],
      "name": "Transfer",
      "type": "event"
    },
    {
      "inputs": [
        {
          "internalType": "address",
          "name": "to",
          "type": "address"
        },
        {
          "internalType": "uint256",
          "name": "tokenId",
          "type": "uint256"
        }
      ],
      "name": "approve",
      "outputs": [],
      "stateMutability": "nonpayable",
      "type": "function"
    },
    {
      "inputs": [
        {
          "internalType": "address",
          "name": "owner",
          "type": "address"
        }
      ],
      "name": "balanceOf",
      "outputs": [
        {
          "internalType": "uint256",
          "name": "",
          "type": "uint256"
        }
      ],
      "stateMutability": "view",
      "type": "function"
    },
    {
      "inputs": [
        {
          "internalType": "uint256",
          "name": "tokenId",
          "type": "uint256"
        }
      ],
      "name": "getApproved",
      "outputs": [
        {
          "internalType": "address",
          "name": "",
          "type": "address"
        }
      ],
      "stateMutability": "view",
      "type": "function"
    },
    {
      "inputs": [
        {
          "internalType": "address",
          "name": "owner",
          "type": "address"
        },
        {
          "internalType": "address",
          "name": "operator",
          "type": "address"
        }
      ],
      "name": "isApprovedForAll",
      "outputs": [
        {
          "internalType": "bool",
          "name": "",
          "type": "bool"
        }
      ],
      "stateMutability": "view",
      "type": "function"
    },
    {
      "inputs": [
        {
          "internalType": "address",
          "name": "to",
          "type": "address"
        }
      ],
      "name": "mint",
      "outputs": [
        {
          "internalType": "uint256",
          "name": "",
          "type": "uint256"
        }
      ],
      "stateMutability": "nonpayable",
      "type": "function"
    },
    {
      "inputs": [],
      "name": "name",
      "outputs": [
        {
          "internalType": "string",
          "name": "",
          "type": "string"
        }
      ],
      "stateMutability": "view",
      "type": "function"
    },
    {
      "inputs": [],
      "name": "owner",
      "outputs": [
        {
          "internalType": "address",
          "name": "",
          "type": "address"
        }
      ],
      "stateMutability": "view",
      "type": "function"
    },
    {
      "inputs": [
        {
          "internalType": "uint256",
          "name": "tokenId",
          "type": "uint256"
        }
      ],
      "name": "ownerOf",
      "outputs": [
        {
          "internalType": "address",
          "name": "",
          "type": "address"
        }
      ],
      "stateMutability": "view",
      "type": "function"
    },
    {
      "inputs": [],
      "name": "renounceOwnership",
      "outputs": [],
      "stateMutability": "nonpayable",
      "type": "function"
    },
    {
      "inputs": [
        {
          "internalType": "address",
          "name": "from",
          "type": "address"
        },
        {
          "internalType": "address",
          "name": "to",
          "type": "address"
        },
        {
          "internalType": "uint256",
          "name": "tokenId",
          "type": "uint256"
        }
      ],
      "name": "safeTransferFrom",
      "outputs": [],
      "stateMutability": "nonpayable",
      "type": "function"
    },
    {
      "inputs": [
        {
          "internalType": "address",
          "name": "from",
          "type": "address"
        },
        {
          "internalType": "address",
          "name": "to",
          "type": "address"
        },
        {
          "internalType": "uint256",
          "name": "tokenId",
          "type": "uint256"
        },
        {
          "internalType": "bytes",
          "name": "data",
          "type": "bytes"
        }
      ],
      "name": "safeTransferFrom",
      "outputs": [],
      "stateMutability": "nonpayable",
      "type": "function"
    },
    {
      "inputs": [
        {
          "internalType": "address",
          "name": "operator",
          "type": "address"
        },
        {
          "internalType": "bool",
          "name": "approved",
          "type": "bool"
        }
      ],
      "name": "setApprovalForAll",
      "outputs": [],
      "stateMutability": "nonpayable",
      "type": "function"
    },
    {
      "inputs": [
        {
          "internalType": "bytes4",
          "name": "interfaceId",
          "type": "bytes4"
        }
      ],
      "name": "supportsInterface",
      "outputs": [
        {
          "internalType": "bool",
          "name": "",
          "type": "bool"
        }
      ],
      "stateMutability": "view",
      "type": "function"
    },
    {
      "inputs": [],
      "name": "symbol",
      "outputs": [
        {
          "internalType": "string",
          "name": "",
          "type": "string"
        }
      ],
      "stateMutability": "view",
      "type": "function"
    },
    {
      "inputs": [
        {
          "internalType": "uint256",
          "name": "tokenId",
          "type": "uint256"
        }
      ],
      "name": "tokenURI",
      "outputs": [
        {
          "internalType": "string",
          "name": "",
          "type": "string"
        }
      ],
      "stateMutability": "view",
      "type": "function"
    },
    {
      "inputs": [],
      "name": "totalSupply",
      "outputs": [
        {
          "internalType": "uint256",
          "name": "",
          "type": "uint256"
        }
      ],
      "stateMutability": "view",
      "type": "function"
    },
    {
      "inputs": [
        {
          "internalType": "address",
          "name": "from",
          "type": "address"
        },
        {
          "internalType": "address",
          "name": "to",
          "type": "address"
        },
        {
          "internalType": "uint256",
          "name": "tokenId",
          "type": "uint256"
        }
      ],
      "name": "transferFrom",
      "outputs": [],
      "stateMutability": "nonpayable",
      "type": "function"
    },
    {
      "inputs": [
        {
          "internalType": "address",
          "name": "newOwner",
          "type": "address"
        }
      ],
      "name": "transferOwnership",
      "outputs": [],
      "stateMutability": "nonpayable",
      "type": "function"
    }
  ],
  "bytecode": "0x60806040523480156200001157600080fd5b50604051620014de380380620014de8339810160408190526200003491620001c7565b3383836000620000458382620002e7565b506001620000548282620002e7565b5050506001600160a01b0381166200008657604051631e4fbdf760e01b81526000600482015260240160405180910390fd5b6200009181620000b0565b506008620000a08282620002e7565b5050600060075550620003b39050565b600680546001600160a01b038381166001600160a01b0319831681179093556040519116919082907f8be0079c531659141344cd1fd0a4f28419497f9722a3daafe3b4186f6b6457e090600090a35050565b634e487b7160e01b600052604160045260246000fd5b600082601f8301126200012a57600080fd5b81516001600160401b038082111562000147576200014762000102565b604051601f8301601f19908116603f0116810190828211818310171562000172576200017262000102565b816040528381526020925086838588010111156200018f57600080fd5b600091505b83821015620001b3578582018301518183018401529082019062000194565b600093810190920192909252949350505050565b600080600060608486031215620001dd57600080fd5b83516001600160401b0380821115620001f557600080fd5b620002038783880162000118565b945060208601519150808211156200021a57600080fd5b620002288783880162000118565b935060408601519150808211156200023f57600080fd5b506200024e8682870162000118565b9150509250925092565b600181811c908216806200026d57607f821691505b6020821081036200028e57634e487b7160e01b600052602260045260246000fd5b50919050565b601f821115620002e257600081815260208120601f850160051c81016020861015620002bd5750805b601f850160051c820191505b81811015620002de57828155600101620002c9565b5050505b505050565b81516001600160401b0381111562000303576200030362000102565b6200031b8162000314845462000258565b8462000294565b602080601f8311600181146200035357600084156200033a5750858301515b600019600386901b1c1916600185901b178555620002de565b600085815260208120601f198616915b82811015620003845788860151825594840194600190910190840162000363565b5085821015620003a35787850151600019600388901b60f8161c191681555b5050505050600190811b01905550565b61111b80620003c36000396000f3fe608060405234801561001057600080fd5b50600436106101165760003560e01c806370a08231116100a2578063a22cb46511610071578063a22cb4651461022a578063b88d4fde1461023d578063c87b56dd14610250578063e985e9c514610263578063f2fde38b1461027657600080fd5b806370a08231146101f6578063715018a6146102095780638da5cb5b1461021157806395d89b411461022257600080fd5b806318160ddd116100e957806318160ddd1461019857806323b872dd146101aa57806342842e0e146101bd5780636352211e146101d05780636a627842146101e357600080fd5b806301ffc9a71461011b57806306fdde0314610143578063081812fc14610158578063095ea7b314610183575b600080fd5b61012e610129366004610d64565b610289565b60405190151581526020015b60405180910390f35b61014b6102db565b60405161013a9190610dd1565b61016b610166366004610de4565b61036d565b6040516001600160a01b03909116815260200161013a565b610196610191366004610e19565b610396565b005b6007545b60405190815260200161013a565b6101966101b8366004610e43565b6103a5565b6101966101cb366004610e43565b610435565b61016b6101de366004610de4565b610455565b61019c6101f1366004610e7f565b610460565b61019c610204366004610e7f565b610483565b6101966104cb565b6006546001600160a01b031661016b565b61014b6104df565b610196610238366004610e9a565b6104ee565b61019661024b366004610eec565b6104f9565b61014b61025e366004610de4565b610511565b61012e610271366004610fc8565b610579565b610196610284366004610e7f565b6105a7565b60006001600160e01b031982166380ac58cd60e01b14806102ba57506001600160e01b03198216635b5e139f60e01b145b806102d557506301ffc9a760e01b6001600160e01b03198316145b92915050565b6060600080546102ea90610ffb565b80601f016020809104026020016040519081016040528092919081815260200182805461031690610ffb565b80156103635780601f1061033857610100808354040283529160200191610363565b820191906000526020600020905b81548152906001019060200180831161034657829003601f168201915b5050505050905090565b6000610378826105e5565b506000828152600460205260409020546001600160a01b03166102d5565b6103a182823361061e565b5050565b6001600160a01b0382166103d457604051633250574960e11b8152600060048201526024015b60405180910390fd5b60006103e183833361062b565b9050836001600160a01b0316816001600160a01b03161461042f576040516364283d7b60e01b81526001600160a01b03808616600483015260248201849052821660448201526064016103cb565b50505050565b610450838383604051806020016040528060008152506104f9565b505050565b60006102d5826105e5565b600780546000918261047183611035565b90915550506007546102d58382610724565b60006001600160a01b0382166104af576040516322718ad960e21b8152600060048201526024016103cb565b506001600160a01b031660009081526003602052604090205490565b6104d361073e565b6104dd600061076b565b565b6060600180546102ea90610ffb565b6103a13383836107bd565b6105048484846103a5565b61042f338585858561085c565b606061051c826105e5565b506000610527610987565b905060008151116105475760405180602001604052806000815250610572565b8061055184610996565b60405160200161056292919061105c565b6040516020818303038152906040525b9392505050565b6001600160a01b03918216600090815260056020908152604080832093909416825291909152205460ff1690565b6105af61073e565b6001600160a01b0381166105d957604051631e4fbdf760e01b8152600060048201526024016103cb565b6105e28161076b565b50565b6000818152600260205260408120546001600160a01b0316806102d557604051637e27328960e01b8152600481018490526024016103cb565b6104508383836001610a29565b6000828152600260205260408120546001600160a01b039081169083161561065857610658818486610b2f565b6001600160a01b0381161561069657610675600085600080610a29565b6001600160a01b038116600090815260036020526040902080546000190190555b6001600160a01b038516156106c5576001600160a01b0385166000908152600360205260409020805460010190555b60008481526002602052604080822080546001600160a01b0319166001600160a01b0389811691821790925591518793918516917fddf252ad1be2c89b69c2b068fc378daa952ba7f163c4a11628f55a4df523b3ef91a4949350505050565b6103a1828260405180602001604052806000815250610b93565b6006546001600160a01b031633146104dd5760405163118cdaa760e01b81523360048201526024016103cb565b600680546001600160a01b038381166001600160a01b0319831681179093556040519116919082907f8be0079c531659141344cd1fd0a4f28419497f9722a3daafe3b4186f6b6457e090600090a35050565b6001600160a01b0382166107ef57604051630b61174360e31b81526001600160a01b03831660048201526024016103cb565b6001600160a01b03838116600081815260056020908152604080832094871680845294825291829020805460ff191686151590811790915591519182527f17307eab39ab6107e8899845ad3d59bd9653f200f220920489ca2b5937696c31910160405180910390a3505050565b6001600160a01b0383163b1561098057604051630a85bd0160e11b81526001600160a01b0384169063150b7a029061089e90889088908790879060040161108b565b6020604051808303816000875af19250505080156108d9575060408051601f3d908101601f191682019092526108d6918101906110c8565b60015b610942573d808015610907576040519150601f19603f3d011682016040523d82523d6000602084013e61090c565b606091505b50805160000361093a57604051633250574960e11b81526001600160a01b03851660048201526024016103cb565b805160208201fd5b6001600160e01b03198116630a85bd0160e11b1461097e57604051633250574960e11b81526001600160a01b03851660048201526024016103cb565b505b5050505050565b6060600880546102ea90610ffb565b606060006109a383610bab565b600101905060008167ffffffffffffffff8111156109c3576109c3610ed6565b6040519080825280601f01601f1916602001820160405280156109ed576020820181803683370190505b5090508181016020015b600019016f181899199a1a9b1b9c1cb0b131b232b360811b600a86061a8153600a85049450846109f757509392505050565b8080610a3d57506001600160a01b03821615155b15610aff576000610a4d846105e5565b90506001600160a01b03831615801590610a795750826001600160a01b0316816001600160a01b031614155b8015610a8c5750610a8a8184610579565b155b15610ab55760405163a9fbf51f60e01b81526001600160a01b03841660048201526024016103cb565b8115610afd5783856001600160a01b0316826001600160a01b03167f8c5be1e5ebec7d5bd14f71427d1e84f3dd0314c0f7b2291e5b200ac8c7c3b92560405160405180910390a45b505b5050600090815260046020526040902080546001600160a01b0319166001600160a01b0392909216919091179055565b610b3a838383610c83565b610450576001600160a01b038316610b6857604051637e27328960e01b8152600481018290526024016103cb565b60405163177e802f60e01b81526001600160a01b0383166004820152602481018290526044016103cb565b610b9d8383610ce9565b61045033600085858561085c565b60008072184f03e93ff9f4daa797ed6e38ed64bf6a1f0160401b8310610bea5772184f03e93ff9f4daa797ed6e38ed64bf6a1f0160401b830492506040015b6d04ee2d6d415b85acef81000000008310610c16576d04ee2d6d415b85acef8100000000830492506020015b662386f26fc100008310610c3457662386f26fc10000830492506010015b6305f5e1008310610c4c576305f5e100830492506008015b6127108310610c6057612710830492506004015b60648310610c72576064830492506002015b600a83106102d55760010192915050565b60006001600160a01b03831615801590610ce15750826001600160a01b0316846001600160a01b03161480610cbd5750610cbd8484610579565b80610ce157506000828152600460205260409020546001600160a01b038481169116145b949350505050565b6001600160a01b038216610d1357604051633250574960e11b8152600060048201526024016103cb565b6000610d218383600061062b565b90506001600160a01b03811615610450576040516339e3563760e11b8152600060048201526024016103cb565b6001600160e01b0319811681146105e257600080fd5b600060208284031215610d7657600080fd5b813561057281610d4e565b60005b83811015610d9c578181015183820152602001610d84565b50506000910152565b60008151808452610dbd816020860160208601610d81565b601f01601f19169290920160200192915050565b6020815260006105726020830184610da5565b600060208284031215610df657600080fd5b5035919050565b80356001600160a01b0381168114610e1457600080fd5b919050565b60008060408385031215610e2c57600080fd5b610e3583610dfd565b946020939093013593505050565b600080600060608486031215610e5857600080fd5b610e6184610dfd565b9250610e6f60208501610dfd565b9150604084013590509250925092565b600060208284031215610e9157600080fd5b61057282610dfd565b60008060408385031215610ead57600080fd5b610eb683610dfd565b915060208301358015158114610ecb57600080fd5b809150509250929050565b634e487b7160e01b600052604160045260246000fd5b60008060008060808587031215610f0257600080fd5b610f0b85610dfd565b9350610f1960208601610dfd565b925060408501359150606085013567ffffffffffffffff80821115610f3d57600080fd5b818701915087601f830112610f5157600080fd5b813581811115610f6357610f63610ed6565b604051601f8201601f19908116603f01168101908382118183101715610f8b57610f8b610ed6565b816040528281528a6020848701011115610fa457600080fd5b82602086016020830137600060208483010152809550505050505092959194509250565b60008060408385031215610fdb57600080fd5b610fe483610dfd565b9150610ff260208401610dfd565b90509250929050565b600181811c9082168061100f57607f821691505b60208210810361102f57634e487b7160e01b600052602260045260246000fd5b50919050565b60006001820161105557634e487b7160e01b600052601160045260246000fd5b5060010190565b6000835161106e818460208801610d81565b835190830190611082818360208801610d81565b01949350505050565b6001600160a01b03858116825284166020820152604081018390526080606082018190526000906110be90830184610da5565b9695505050505050565b6000602082840312156110da57600080fd5b815161057281610d4e56fea2646970667358221220006f47fad8ea6d03fc81f964fb2fb48c54f460ddf8d59a0ccf995456852dfb6764736f6c63430008140033",
  "linkReferences": {},
  "deployedLinkReferences": {}
}