{
  "_format": "hh-sol-artifact-1",
  "contractName": "Auction",
  "sourceName": "contracts/auction/Auction.sol",
  "abi": [
    {
      "inputs": [
        {
          "internalType": "address",
          "name": "_priceOracle",
          "type": "address"
        }
      ],
      "stateMutability": "nonpayable",
      "type": "constructor"
    },
    {
      "inputs": [
        {
          "internalType": "address",
          "name": "owner",
          "type": "address"
        }
      ],
      "name": "OwnableInvalidOwner",
      "type": "error"
    },
    {
      "inputs": [
        {
          "internalType": "address",
          "name": "account",
          "type": "address"
        }
      ],
      "name": "OwnableUnauthorizedAccount",
      "type": "error"
    },
    {
      "inputs": [],
      "name": "ReentrancyGuardReentrantCall",
      "type": "error"
    },
    {
      "anonymous": false,
      "inputs": [
        {
          "indexed": true,
          "internalType": "uint256",
          "name": "auctionId",
          "type": "uint256"
        }
      ],
      "name": "AuctionCancelled",
      "type": "event"
    },
    {
      "anonymous": false,
      "inputs": [
        {
          "indexed": true,
          "internalType": "uint256",
          "name": "auctionId",
          "type": "uint256"
        },
        {
          "indexed": true,
          "internalType": "address",
          "name": "seller",
          "type": "address"
        },
        {
          "indexed": true,
          "internalType": "address",
          "name": "nftContract",
          "type": "address"
        },
        {
          "indexed": false,
          "internalType": "uint256",
          "name": "tokenId",
          "type": "uint256"
        },
        {
          "indexed": false,
          "internalType": "uint256",
          "name": "startTime",
          "type": "uint256"
        },
        {
          "indexed": false,
          "internalType": "uint256",
          "name": "endTime",
          "type": "uint256"
        },
        {
          "indexed": false,
          "internalType": "uint256",
          "name": "reservePrice",
          "type": "uint256"
        },
        {
          "indexed": false,
          "internalType": "enum IAuction.PaymentCurrency",
          "name": "paymentCurrency",
          "type": "uint8"
        },
        {
          "indexed": false,
          "internalType": "address",
          "name": "erc20Token",
          "type": "address"
        }
      ],
      "name": "AuctionCreated",
      "type": "event"
    },
    {
      "anonymous": false,
      "inputs": [
        {
          "indexed": true,
          "internalType": "uint256",
          "name": "auctionId",
          "type": "uint256"
        },
        {
          "indexed": true,
          "internalType": "address",
          "name": "winner",
          "type": "address"
        },
        {
          "indexed": false,
          "internalType": "uint256",
          "name": "amount",
          "type": "uint256"
        }
      ],
      "name": "AuctionEnded",
      "type": "event"
    },
    {
      "anonymous": false,
      "inputs": [
        {
          "indexed": true,
          "internalType": "uint256",
          "name": "auctionId",
          "type": "uint256"
        },
        {
          "indexed": true,
          "internalType": "address",
          "name": "bidder",
          "type": "address"
        },
        {
          "indexed": false,
          "internalType": "uint256",
          "name": "amount",
          "type": "uint256"
        },
        {
          "indexed": false,
          "internalType": "enum IAuction.PaymentCurrency",
          "name": "paymentCurrency",
          "type": "uint8"
        }
      ],
      "name": "BidPlaced",
      "type": "event"
    },
    {
      "anonymous": false,
      "inputs": [
        {
          "indexed": true,
          "internalType": "address",
          "name": "previousOwner",
          "type": "address"
        },
        {
          "indexed": true,
          "internalType": "address",
          "name": "newOwner",
          "type": "address"
        }
      ],
      "name": "OwnershipTransferred",
      "type": "event"
    },
    {
      "inputs": [
        {
          "internalType": "uint256",
          "name": "",
          "type": "uint256"
        }
      ],
      "name": "auctions",
      "outputs": [
        {
          "internalType": "address",
          "name": "seller",
          "type": "address"
        },
        {
          "internalType": "address",
          "name": "nftContract",
          "type": "address"
        },
        {
          "internalType": "uint256",
          "name": "tokenId",
          "type": "uint256"
        },
        {
          "internalType": "uint256",
          "name": "startTime",
          "type": "uint256"
        },
        {
          "internalType": "uint256",
          "name": "endTime",
          "type": "uint256"
        },
        {
          "internalType": "uint256",
          "name": "reservePrice",
          "type": "uint256"
        },
        {
          "internalType": "enum IAuction.PaymentCurrency",
          "name": "paymentCurrency",
          "type": "uint8"
        },
        {
          "internalType": "address",
          "name": "erc20Token",
          "type": "address"
        },
        {
          "internalType": "address",
          "name": "highestBidder",
          "type": "address"
        },
        {
          "internalType": "uint256",
          "name": "highestBid",
          "type": "uint256"
        },
        {
          "internalType": "enum IAuction.AuctionStatus",
          "name": "status",
          "type": "uint8"
        }
      ],
      "stateMutability": "view",
      "type": "function"
    },
    {
      "inputs": [
        {
          "internalType": "uint256",
          "name": "",
          "type": "uint256"
        },
        {
          "internalType": "address",
          "name": "",
          "type": "address"
        }
      ],
      "name": "bids",
      "outputs": [
        {
          "internalType": "uint256",
          "name": "",
          "type": "uint256"
        }
      ],
      "stateMutability": "view",
      "type": "function"
    },
    {
      "inputs": [
        {
          "internalType": "uint256",
          "name": "auctionId",
          "type": "uint256"
        }
      ],
      "name": "cancelAuction",
      "outputs": [],
      "stateMutability": "nonpayable",
      "type": "function"
    },
    {
      "inputs": [
        {
          "internalType": "address",
          "name": "nftContract",
          "type": "address"
        },
        {
          "internalType": "uint256",
          "name": "tokenId",
          "type": "uint256"
        },
        {
          "internalType": "uint256",
          "name": "duration",
          "type": "uint256"
        },
        {
          "internalType": "uint256",
          "name": "reservePrice",
          "type": "uint256"
        },
        {
          "internalType": "enum IAuction.PaymentCurrency",
          "name": "paymentCurrency",
          "type": "uint8"
        },
        {
          "internalType": "address",
          "name": "erc20Token",
          "type": "address"
        }
      ],
      "name": "createAuction",
      "outputs": [
        {
          "internalType": "uint256",
          "name": "",
          "type": "uint256"
        }
      ],
      "stateMutability": "nonpayable",
      "type": "function"
    },
    {
      "inputs": [
        {
          "internalType": "uint256",
          "name": "auctionId",
          "type": "uint256"
        }
      ],
      "name": "endAuction",
      "outputs": [],
      "stateMutability": "nonpayable",
      "type": "function"
    },
    {
      "inputs": [
        {
          "internalType": "uint256",
          "name": "auctionId",
          "type": "uint256"
        }
      ],
      "name": "getAuction",
      "outputs": [
        {
          "components": [
            {
              "internalType": "address",
              "name": "seller",
              "type": "address"
            },
            {
              "internalType": "address",
              "name": "nftContract",
              "type": "address"
            },
            {
              "internalType": "uint256",
              "name": "tokenId",
              "type": "uint256"
            },
            {
              "internalType": "uint256",
              "name": "startTime",
              "type": "uint256"
            },
            {
              "internalType": "uint256",
              "name": "endTime",
              "type": "uint256"
            },
            {
              "internalType": "uint256",
              "name": "reservePrice",
              "type": "uint256"
            },
            {
              "internalType": "enum IAuction.PaymentCurrency",
              "name": "paymentCurrency",
              "type": "uint8"
            },
            {
              "internalType": "address",
              "name": "erc20Token",
              "type": "address"
            },
            {
              "internalType": "address",
              "name": "highestBidder",
              "type": "address"
            },
            {
              "internalType": "uint256",
              "name": "highestBid",
              "type": "uint256"
            },
            {
              "internalType": "enum IAuction.AuctionStatus",
              "name": "status",
              "type": "uint8"
            }
          ],
          "internalType": "struct IAuction.AuctionInfo",
          "name": "",
          "type": "tuple"
        }
      ],
      "stateMutability": "view",
      "type": "function"
    },
    {
      "inputs": [],
      "name": "getAuctionCount",
      "outputs": [
        {
          "internalType": "uint256",
          "name": "",
          "type": "uint256"
        }
      ],
      "stateMutability": "view",
      "type": "function"
    },
    {
      "inputs": [
        {
          "internalType": "uint256",
          "name": "auctionId",
          "type": "uint256"
        },
        {
          "internalType": "uint256",
          "name": "amount",
          "type": "uint256"
        }
      ],
      "name": "getBidInUSD",
      "outputs": [
        {
          "internalType": "uint256",
          "name": "",
          "type": "uint256"
        }
      ],
      "stateMutability": "view",
      "type": "function"
    },
    {
      "inputs": [],
      "name": "minBidIncrementBPS",
      "outputs": [
        {
          "internalType": "uint256",
          "name": "",
          "type": "uint256"
        }
      ],
      "stateMutability": "view",
      "type": "function"
    },
    {
      "inputs": [],
      "name": "owner",
      "outputs": [
        {
          "internalType": "address",
          "name": "",
          "type": "address"
        }
      ],
      "stateMutability": "view",
      "type": "function"
    },
    {
      "inputs": [
        {
          "internalType": "uint256",
          "name": "auctionId",
          "type": "uint256"
        },
        {
          "internalType": "uint256",
          "name": "amount",
          "type": "uint256"
        }
      ],
      "name": "placeBid",
      "outputs": [],
      "stateMutability": "payable",
      "type": "function"
    },
    {
      "inputs": [],
      "name": "platformFeeBPS",
      "outputs": [
        {
          "internalType": "uint256",
          "name": "",
          "type": "uint256"
        }
      ],
      "stateMutability": "view",
      "type": "function"
    },
    {
      "inputs": [],
      "name": "priceOracle",
      "outputs": [
        {
          "internalType": "contract IPriceOracle",
          "name": "",
          "type": "address"
        }
      ],
      "stateMutability": "view",
      "type": "function"
    },
    {
      "inputs": [],
      "name": "renounceOwnership",
      "outputs": [],
      "stateMutability": "nonpayable",
      "type": "function"
    },
    {
      "inputs": [
        {
          "internalType": "uint256",
          "name": "newIncrementBPS",
          "type": "uint256"
        }
      ],
      "name": "setMinBidIncrement",
      "outputs": [],
      "stateMutability": "nonpayable",
      "type": "function"
    },
    {
      "inputs": [
        {
          "internalType": "uint256",
          "name": "newFeeBPS",
          "type": "uint256"
        }
      ],
      "name": "setPlatformFee",
      "outputs": [],
      "stateMutability": "nonpayable",
      "type": "function"
    },
    {
      "inputs": [
        {
          "internalType": "address",
          "name": "newOwner",
          "type": "address"
        }
      ],
      "name": "transferOwnership",
      "outputs": [],
      "stateMutability": "nonpayable",
      "type": "function"
    }
  ],
  "bytecode": "0x60806040523480156200001157600080fd5b5060405162001bd138038062001bd18339810160408190526200003491620000f4565b600160005533806200006057604051631e4fbdf760e01b81526000600482015260240160405180910390fd5b6200006b81620000a2565b50600380546001600160a01b0319166001600160a01b039290921691909117905560fa6004556101f4600555600060025562000126565b600180546001600160a01b038381166001600160a01b0319831681179093556040519116919082907f8be0079c531659141344cd1fd0a4f28419497f9722a3daafe3b4186f6b6457e090600090a35050565b6000602082840312156200010757600080fd5b81516001600160a01b03811681146200011f57600080fd5b9392505050565b611a9b80620001366000396000f3fe6080604052600436106100fe5760003560e01c8063715018a61161009557806396b5a7551161006457806396b5a75514610334578063b9a2de3a14610354578063c44e664014610374578063ebaaa3a114610389578063f2fde38b1461039f57600080fd5b8063715018a6146102b457806378bd7935146102c95780638da5cb5b146102f65780638ff5734b1461031457600080fd5b806355ee09d7116100d157806355ee09d7146101be578063560dfac2146101de578063571a26a0146101fe57806357c90de5146102a157600080fd5b806312e8e2c31461010357806316909472146101255780632630c12f1461014e5780633f1ffcec14610186575b600080fd5b34801561010f57600080fd5b5061012361011e366004611677565b6103bf565b005b34801561013157600080fd5b5061013b60055481565b6040519081526020015b60405180910390f35b34801561015a57600080fd5b5060035461016e906001600160a01b031681565b6040516001600160a01b039091168152602001610145565b34801561019257600080fd5b5061013b6101a13660046116ac565b600760209081526000928352604080842090915290825290205481565b3480156101ca57600080fd5b506101236101d9366004611677565b610412565b3480156101ea57600080fd5b5061013b6101f93660046116d8565b610466565b34801561020a57600080fd5b5061028a610219366004611677565b600660208190526000918252604090912080546001820154600283015460038401546004850154600586015496860154600787015460088801546009909801546001600160a01b039788169996881698959794969395939460ff80851695610100909504821694939091169291168b565b6040516101459b9a99989796959493929190611734565b6101236102af3660046116d8565b61061b565b3480156102c057600080fd5b50610123610a50565b3480156102d557600080fd5b506102e96102e4366004611677565b610a64565b60405161014591906117ae565b34801561030257600080fd5b506001546001600160a01b031661016e565b34801561032057600080fd5b5061013b61032f36600461186b565b610b69565b34801561034057600080fd5b5061012361034f366004611677565b610ee7565b34801561036057600080fd5b5061012361036f366004611677565b61108d565b34801561038057600080fd5b5060025461013b565b34801561039557600080fd5b5061013b60045481565b3480156103ab57600080fd5b506101236103ba3660046118d0565b611516565b6103c7611551565b6103e881111561040d5760405162461bcd60e51b815260206004820152600c60248201526b08ccaca40e8dede40d0d2ced60a31b60448201526064015b60405180910390fd5b600455565b61041a611551565b6103e88111156104615760405162461bcd60e51b8152602060048201526012602482015271092dcc6e4cadacadce840e8dede40d0d2ced60731b6044820152606401610404565b600555565b600082815260066020818152604080842081516101608101835281546001600160a01b039081168252600180840154909116948201949094526002820154928101929092526003810154606083015260048101546080830152600581015460a0830152928301548493919260c084019160ff16908111156104e9576104e96116fa565b60018111156104fa576104fa6116fa565b815260068201546001600160a01b0361010090910481166020830152600783015416604082015260088201546060820152600982015460809091019060ff16600281111561054a5761054a6116fa565b600281111561055b5761055b6116fa565b90525090506000808260c001516001811115610579576105796116fa565b14905060008161058d578260e00151610590565b60005b60035460405163349da41760e01b81526004810188905284151560248201526001600160a01b03808416604483015292935091169063349da41790606401602060405180830381865afa1580156105eb573d6000803e3d6000fd5b505050506040513d601f19601f8201168201806040525081019061060f91906118f2565b93505050505b92915050565b61062361157e565b600082815260066020526040812090600982015460ff16600281111561064b5761064b6116fa565b146106685760405162461bcd60e51b81526004016104049061190b565b806004015442106106ab5760405162461bcd60e51b815260206004820152600d60248201526c105d58dd1a5bdb88195b991959609a1b6044820152606401610404565b600081600801546000146106ec5761271060055483600801546106ce919061194d565b6106d89190611964565b82600801546106e79190611986565b6106f2565b81600501545b9050808310156107325760405162461bcd60e51b815260206004820152600b60248201526a42696420746f6f206c6f7760a81b6044820152606401610404565b6000600683015460ff16600181111561074d5761074d6116fa565b036107f1578234146107975760405162461bcd60e51b815260206004820152601360248201527208aa89040c2dadeeadce840dad2e6dac2e8c6d606b1b6044820152606401610404565b60078201546001600160a01b0316156107ec57600782015460088301546040516001600160a01b039092169181156108fc0291906000818181858888f193505050501580156107ea573d6000803e3d6000fd5b505b6109dd565b341561084a5760405162461bcd60e51b815260206004820152602260248201527f455448206e6f7420616363657074656420666f7220455243323020617563746960448201526137b760f11b6064820152608401610404565b60068201546040516323b872dd60e01b81526101009091046001600160a01b03169081906323b872dd9061088690339030908990600401611999565b6020604051808303816000875af11580156108a5573d6000803e3d6000fd5b505050506040513d601f19601f820116820180604052508101906108c991906119bd565b61090d5760405162461bcd60e51b8152602060048201526015602482015274115490cc8c081d1c985b9cd9995c8819985a5b1959605a1b6044820152606401610404565b60078301546001600160a01b0316156109db576007830154600884015460405163a9059cbb60e01b81526001600160a01b03928316600482015260248101919091529082169063a9059cbb906044016020604051808303816000875af115801561097b573d6000803e3d6000fd5b505050506040513d601f19601f8201168201806040525081019061099f91906119bd565b6109db5760405162461bcd60e51b815260206004820152600d60248201526c1499599d5b990819985a5b1959609a1b6044820152606401610404565b505b6007820180546001600160a01b0319163390811790915560088301849055600683015460405186917ff2adf7b58bf6f84c47a0d36351eb2f4ea4368a86f22908824e22f4446ea9225891610a3891889160ff909116906119df565b60405180910390a35050610a4c6001600055565b5050565b610a58611551565b610a6260006115a8565b565b610a6c6115fa565b60008281526006602081815260409283902083516101608101855281546001600160a01b039081168252600180840154909116938201939093526002820154948101949094526003810154606085015260048101546080850152600581015460a08501529182015460c084019160ff90911690811115610aee57610aee6116fa565b6001811115610aff57610aff6116fa565b815260068201546001600160a01b0361010090910481166020830152600783015416604082015260088201546060820152600982015460809091019060ff166002811115610b4f57610b4f6116fa565b6002811115610b6057610b606116fa565b90525092915050565b6000808511610bba5760405162461bcd60e51b815260206004820152601960248201527f4475726174696f6e206d75737420626520706f736974697665000000000000006044820152606401610404565b60008411610c0a5760405162461bcd60e51b815260206004820152601e60248201527f52657365727665207072696365206d75737420626520706f73697469766500006044820152606401610404565b6001836001811115610c1e57610c1e6116fa565b03610c79576001600160a01b038216610c795760405162461bcd60e51b815260206004820152601c60248201527f455243323020746f6b656e2061646472657373207265717569726564000000006044820152606401610404565b6040516323b872dd60e01b81526001600160a01b038816906323b872dd90610ca990339030908b90600401611999565b600060405180830381600087803b158015610cc357600080fd5b505af1158015610cd7573d6000803e3d6000fd5b505060028054925090506000610cec836119f3565b909155505060025460408051610160810182523381526001600160a01b038a16602082015290810188905242606082018190526080820190610d2f908990611986565b8152602001868152602001856001811115610d4c57610d4c6116fa565b81526001600160a01b038516602082015260006040820181905260608201819052608090910152600082815260066020818152604092839020845181546001600160a01b039182166001600160a01b031991821617835592860151600180840180549290931691909416179055928401516002840155606084015160038401556080840151600484015560a0840151600584015560c08401519183018054909160ff19909116908381811115610e0457610e046116fa565b021790555060e0820151600682018054610100600160a81b0319166101006001600160a01b039384168102919091179091558301516007830180546001600160a01b03191691909216179055610120820151600882015561014082015160098201805460ff19166001836002811115610e7f57610e7f6116fa565b021790555050506001600160a01b03881633827fce968a8ccb7c114a071760f6ed4bb1595c6d695ddaf16108710ba2dc99171ec78a42610ebf8c82611986565b8b8b8b604051610ed496959493929190611a0c565b60405180910390a4979650505050505050565b600081815260066020526040812090600982015460ff166002811115610f0f57610f0f6116fa565b14610f2c5760405162461bcd60e51b81526004016104049061190b565b80546001600160a01b0316331480610f4e57506001546001600160a01b031633145b610f8b5760405162461bcd60e51b815260206004820152600e60248201526d139bdd08185d5d1a1bdc9a5e995960921b6044820152606401610404565b60078101546001600160a01b031615610fdc5760405162461bcd60e51b8152602060048201526013602482015272109a591cc8185b1c9958591e481c1b1858d959606a1b6044820152606401610404565b60098101805460ff1916600290811790915560018201548254918301546040516323b872dd60e01b81526001600160a01b03928316936323b872dd9361102c933093919092169190600401611999565b600060405180830381600087803b15801561104657600080fd5b505af115801561105a573d6000803e3d6000fd5b50506040518492507f2809c7e17bf978fbc7194c0a694b638c4215e9140cacc6c38ca36010b45697df9150600090a25050565b61109561157e565b600081815260066020526040812090600982015460ff1660028111156110bd576110bd6116fa565b146110da5760405162461bcd60e51b81526004016104049061190b565b8060040154421015806110f6575080546001600160a01b031633145b6111365760405162461bcd60e51b8152602060048201526011602482015270105d58dd1a5bdb881b9bdd08195b991959607a1b6044820152606401610404565b60098101805460ff1916600117905560078101546001600160a01b03161561144c576000612710600454836008015461116f919061194d565b6111799190611964565b9050600081836008015461118d9190611a52565b6001840154600785015460028601546040516323b872dd60e01b81529394506001600160a01b03928316936323b872dd936111cf933093911691600401611999565b600060405180830381600087803b1580156111e957600080fd5b505af11580156111fd573d6000803e3d6000fd5b506000925061120a915050565b600684015460ff166001811115611223576112236116fa565b036112a25782546040516001600160a01b039091169082156108fc029083906000818181858888f19350505050158015611261573d6000803e3d6000fd5b506001546040516001600160a01b039091169083156108fc029084906000818181858888f1935050505015801561129c573d6000803e3d6000fd5b50611445565b6006830154835460405163a9059cbb60e01b81526001600160a01b039182166004820152602481018490526101009092041690819063a9059cbb906044016020604051808303816000875af11580156112ff573d6000803e3d6000fd5b505050506040513d601f19601f8201168201806040525081019061132391906119bd565b61136f5760405162461bcd60e51b815260206004820152601960248201527f5472616e7366657220746f2073656c6c6572206661696c6564000000000000006044820152606401610404565b806001600160a01b031663a9059cbb6113906001546001600160a01b031690565b6040516001600160e01b031960e084901b1681526001600160a01b039091166004820152602481018690526044016020604051808303816000875af11580156113dd573d6000803e3d6000fd5b505050506040513d601f19601f8201168201806040525081019061140191906119bd565b6114435760405162461bcd60e51b8152602060048201526013602482015272151c985b9cd9995c881999594819985a5b1959606a1b6044820152606401610404565b505b50506114bd565b6001810154815460028301546040516323b872dd60e01b81526001600160a01b03938416936323b872dd9361148a9330939290911691600401611999565b600060405180830381600087803b1580156114a457600080fd5b505af11580156114b8573d6000803e3d6000fd5b505050505b600781015460088201546040519081526001600160a01b039091169083907fd2aa34a4fdbbc6dff6a3e56f46e0f3ae2a31d7785ff3487aa5c95c642acea5019060200160405180910390a3506115136001600055565b50565b61151e611551565b6001600160a01b03811661154857604051631e4fbdf760e01b815260006004820152602401610404565b611513816115a8565b6001546001600160a01b03163314610a625760405163118cdaa760e01b8152336004820152602401610404565b6002600054036115a157604051633ee5aeb560e01b815260040160405180910390fd5b6002600055565b600180546001600160a01b038381166001600160a01b0319831681179093556040519116919082907f8be0079c531659141344cd1fd0a4f28419497f9722a3daafe3b4186f6b6457e090600090a35050565b60405180610160016040528060006001600160a01b0316815260200160006001600160a01b031681526020016000815260200160008152602001600081526020016000815260200160006001811115611655576116556116fa565b8152600060208201819052604082018190526060820181905260809091015290565b60006020828403121561168957600080fd5b5035919050565b80356001600160a01b03811681146116a757600080fd5b919050565b600080604083850312156116bf57600080fd5b823591506116cf60208401611690565b90509250929050565b600080604083850312156116eb57600080fd5b50508035926020909101359150565b634e487b7160e01b600052602160045260246000fd5b60028110611720576117206116fa565b9052565b60038110611720576117206116fa565b6001600160a01b038c811682528b81166020830152604082018b9052606082018a90526080820189905260a0820188905261016082019061177860c0840189611710565b86811660e08401528516610100830152610120820184905261179e610140830184611724565b9c9b505050505050505050505050565b81516001600160a01b03168152610160810160208301516117da60208401826001600160a01b03169052565b5060408301516040830152606083015160608301526080830151608083015260a083015160a083015260c083015161181560c0840182611710565b5060e083015161183060e08401826001600160a01b03169052565b50610100838101516001600160a01b03169083015261012080840151908301526101408084015161186382850182611724565b505092915050565b60008060008060008060c0878903121561188457600080fd5b61188d87611690565b95506020870135945060408701359350606087013592506080870135600281106118b657600080fd5b91506118c460a08801611690565b90509295509295509295565b6000602082840312156118e257600080fd5b6118eb82611690565b9392505050565b60006020828403121561190457600080fd5b5051919050565b60208082526012908201527141756374696f6e206e6f742061637469766560701b604082015260600190565b634e487b7160e01b600052601160045260246000fd5b808202811582820484141761061557610615611937565b60008261198157634e487b7160e01b600052601260045260246000fd5b500490565b8082018082111561061557610615611937565b6001600160a01b039384168152919092166020820152604081019190915260600190565b6000602082840312156119cf57600080fd5b815180151581146118eb57600080fd5b828152604081016118eb6020830184611710565b600060018201611a0557611a05611937565b5060010190565b600060c082019050878252866020830152856040830152846060830152611a366080830185611710565b6001600160a01b039290921660a0919091015295945050505050565b818103818111156106155761061561193756fea2646970667358221220d57ac94d931fcd47f0cd583c8c45696170ae05d28878e1ca3569284a46222e9a64736f6c63430008140033",
  "linkReferences": {},
  "deployedLinkReferences": {}
}