{"contracts/oracle/MockPriceOracle.sol":{"MockPriceOracle":{"abi":[{"inputs":[],"stateMutability":"nonpayable","type":"constructor"},{"inputs":[{"internalType":"address","name":"owner","type":"address"}],"name":"OwnableInvalidOwner","type":"error"},{"inputs":[{"internalType":"address","name":"account","type":"address"}],"name":"OwnableUnauthorizedAccount","type":"error"},{"anonymous":false,"inputs":[{"indexed":true,"internalType":"address","name":"previousOwner","type":"address"},{"indexed":true,"internalType":"address","name":"newOwner","type":"address"}],"name":"OwnershipTransferred","type":"event"},{"anonymous":false,"inputs":[{"indexed":true,"internalType":"address","name":"token","type":"address"},{"indexed":false,"internalType":"uint256","name":"price","type":"uint256"},{"indexed":false,"internalType":"uint8","name":"decimals","type":"uint8"}],"name":"PriceUpdated","type":"event"},{"inputs":[{"internalType":"uint256","name":"amount","type":"uint256"},{"internalType":"bool","name":"isETH","type":"bool"},{"internalType":"address","name":"token","type":"address"}],"name":"convertToUSD","outputs":[{"internalType":"uint256","name":"","type":"uint256"}],"stateMutability":"view","type":"function"},{"inputs":[{"internalType":"address","name":"token","type":"address"}],"name":"getERC20Price","outputs":[{"internalType":"uint256","name":"","type":"uint256"}],"stateMutability":"view","type":"function"},{"inputs":[],"name":"getETHPrice","outputs":[{"internalType":"uint256","name":"","type":"uint256"}],"stateMutability":"view","type":"function"},{"inputs":[],"name":"owner","outputs":[{"internalType":"address","name":"","type":"address"}],"stateMutability":"view","type":"function"},{"inputs":[{"internalType":"address","name":"","type":"address"}],"name":"prices","outputs":[{"internalType":"uint256","name":"price","type":"uint256"},{"internalType":"uint8","name":"decimals","type":"uint8"}],"stateMutability":"view","type":"function"},{"inputs":[],"name":"renounceOwnership","outputs":[],"stateMutability":"nonpayable","type":"function"},{"inputs":[{"internalType":"address","name":"token","type":"address"},{"internalType":"uint256","name":"price","type":"uint256"},{"internalType":"uint8","name":"decimals","type":"uint8"}],"name":"setPrice","outputs":[],"stateMutability":"nonpayable","type":"function"},{"inputs":[{"internalType":"address","name":"newOwner","type":"address"}],"name":"transferOwnership","outputs":[],"stateMutability":"nonpayable","type":"function"}],"devdoc":{"errors":{"OwnableInvalidOwner(address)":[{"details":"The owner is not a valid owner account. (eg. `address(0)`)"}],"OwnableUnauthorizedAccount(address)":[{"details":"The caller account is not authorized to perform an operation."}]},"kind":"dev","methods":{"owner()":{"details":"Returns the address of the current owner."},"renounceOwnership()":{"details":"Leaves the contract without owner. It will not be possible to call `onlyOwner` functions. Can only be called by the current owner. NOTE: Renouncing ownership will leave the contract without an owner, thereby disabling any functionality that is only available to the owner."},"transferOwnership(address)":{"details":"Transfers ownership of the contract to a new account (`newOwner`). Can only be called by the current owner."}},"version":1},"evm":{"bytecode":{"linkReferences":{},"object":"608060405234801561001057600080fd5b50338061003757604051631e4fbdf760e01b81526000600482015260240160405180910390fd5b610040816100c1565b5060408051808201909152642e90edd000815260086020808301918252600080526001905290517fa6eef7e35abe7026729641147f7915573c7e97b47efa546f5f6e3230263bcb4955517fa6eef7e35abe7026729641147f7915573c7e97b47efa546f5f6e3230263bcb4a805460ff191660ff909216919091179055610111565b600080546001600160a01b038381166001600160a01b0319831681178455604051919092169283917f8be0079c531659141344cd1fd0a4f28419497f9722a3daafe3b4186f6b6457e09190a35050565b610640806101206000396000f3fe608060405234801561001057600080fd5b50600436106100885760003560e01c8063a607a8d91161005b578063a607a8d9146100eb578063b8cb21aa146100f3578063cfed246b14610106578063f2fde38b1461014757600080fd5b8063349da4171461008d57806351120474146100b3578063715018a6146100c85780638da5cb5b146100d0575b600080fd5b6100a061009b36600461041b565b61015a565b6040519081526020015b60405180910390f35b6100c66100c136600461045e565b610217565b005b6100c66102a6565b6000546040516001600160a01b0390911681526020016100aa565b6100a06102ba565b6100a06101013660046104a4565b6102cb565b6101306101143660046104a4565b6001602081905260009182526040909120805491015460ff1682565b6040805192835260ff9091166020830152016100aa565b6100c66101553660046104a4565b610344565b60008083610168578261016b565b60005b6001600160a01b0381166000908152600160208181526040928390208351808501909452805480855292015460ff1690830152919250906101e35760405162461bcd60e51b815260206004820152600d60248201526c141c9a58d9481b9bdd081cd95d609a1b60448201526064015b60405180910390fd5b60008160200151600a6101f691906105c2565b825161020290896105d1565b61020c91906105e8565b979650505050505050565b61021f610382565b60408051808201825283815260ff83811660208084018281526001600160a01b038916600081815260018085529088902096518755915195909101805460ff1916959094169490941790925583518681529182015290917f5cf0b3ec05876abbfc211c445acba869514647943783a49e986809ef59164a0c910160405180910390a2505050565b6102ae610382565b6102b860006103af565b565b60006102c660006102cb565b905090565b6001600160a01b03811660009081526001602081815260408084208151808301909252805480835293015460ff16918101919091529061033d5760405162461bcd60e51b815260206004820152600d60248201526c141c9a58d9481b9bdd081cd95d609a1b60448201526064016101da565b5192915050565b61034c610382565b6001600160a01b03811661037657604051631e4fbdf760e01b8152600060048201526024016101da565b61037f816103af565b50565b6000546001600160a01b031633146102b85760405163118cdaa760e01b81523360048201526024016101da565b600080546001600160a01b038381166001600160a01b0319831681178455604051919092169283917f8be0079c531659141344cd1fd0a4f28419497f9722a3daafe3b4186f6b6457e09190a35050565b80356001600160a01b038116811461041657600080fd5b919050565b60008060006060848603121561043057600080fd5b833592506020840135801515811461044757600080fd5b9150610455604085016103ff565b90509250925092565b60008060006060848603121561047357600080fd5b61047c846103ff565b925060208401359150604084013560ff8116811461049957600080fd5b809150509250925092565b6000602082840312156104b657600080fd5b6104bf826103ff565b9392505050565b634e487b7160e01b600052601160045260246000fd5b600181815b808511156105175781600019048211156104fd576104fd6104c6565b8085161561050a57918102915b93841c93908002906104e1565b509250929050565b60008261052e575060016105bc565b8161053b575060006105bc565b8160018114610551576002811461055b57610577565b60019150506105bc565b60ff84111561056c5761056c6104c6565b50506001821b6105bc565b5060208310610133831016604e8410600b841016171561059a575081810a6105bc565b6105a483836104dc565b80600019048211156105b8576105b86104c6565b0290505b92915050565b60006104bf60ff84168361051f565b80820281158282048414176105bc576105bc6104c6565b60008261060557634e487b7160e01b600052601260045260246000fd5b50049056fea26469706673582212208656cf9cacbc8033be9fc9fa1ad805deefe00c16f48e36c39104cd0881a9430f64736f6c63430008140033","opcodes":"PUSH1 0x80 PUSH1 0x40 MSTORE CALLVALUE DUP1 ISZERO PUSH2 0x10 JUMPI PUSH1 0x0 DUP1 REVERT JUMPDEST POP CALLER DUP1 PUSH2 0x37 JUMPI PUSH1 0x40 MLOAD PUSH4 0x1E4FBDF7 PUSH1 0xE0 SHL DUP2 MSTORE PUSH1 0x0 PUSH1 0x4 DUP3 ADD MSTORE PUSH1 0x24 ADD PUSH1 0x40 MLOAD DUP1 SWAP2 SUB SWAP1 REVERT JUMPDEST PUSH2 0x40 DUP2 PUSH2 0xC1 JUMP JUMPDEST POP PUSH1 0x40 DUP1 MLOAD DUP1 DUP3 ADD SWAP1 SWAP2 MSTORE PUSH5 0x2E90EDD000 DUP2 MSTORE PUSH1 0x8 PUSH1 0x20 DUP1 DUP4 ADD SWAP2 DUP3 MSTORE PUSH1 0x0 DUP1 MSTORE PUSH1 0x1 SWAP1 MSTORE SWAP1 MLOAD PUSH32 0xA6EEF7E35ABE7026729641147F7915573C7E97B47EFA546F5F6E3230263BCB49 SSTORE MLOAD PUSH32 0xA6EEF7E35ABE7026729641147F7915573C7E97B47EFA546F5F6E3230263BCB4A DUP1 SLOAD PUSH1 0xFF NOT AND PUSH1 0xFF SWAP1 SWAP3 AND SWAP2 SWAP1 SWAP2 OR SWAP1 SSTORE PUSH2 0x111 JUMP JUMPDEST PUSH1 0x0 DUP1 SLOAD PUSH1 0x1 PUSH1 0x1 PUSH1 0xA0 SHL SUB DUP4 DUP2 AND PUSH1 0x1 PUSH1 0x1 PUSH1 0xA0 SHL SUB NOT DUP4 AND DUP2 OR DUP5 SSTORE PUSH1 0x40 MLOAD SWAP2 SWAP1 SWAP3 AND SWAP3 DUP4 SWAP2 PUSH32 0x8BE0079C531659141344CD1FD0A4F28419497F9722A3DAAFE3B4186F6B6457E0 SWAP2 SWAP1 LOG3 POP POP JUMP JUMPDEST PUSH2 0x640 DUP1 PUSH2 0x120 PUSH1 0x0 CODECOPY PUSH1 0x0 RETURN INVALID PUSH1 0x80 PUSH1 0x40 MSTORE CALLVALUE DUP1 ISZERO PUSH2 0x10 JUMPI PUSH1 0x0 DUP1 REVERT JUMPDEST POP PUSH1 0x4 CALLDATASIZE LT PUSH2 0x88 JUMPI PUSH1 0x0 CALLDATALOAD PUSH1 0xE0 SHR DUP1 PUSH4 0xA607A8D9 GT PUSH2 0x5B JUMPI DUP1 PUSH4 0xA607A8D9 EQ PUSH2 0xEB JUMPI DUP1 PUSH4 0xB8CB21AA EQ PUSH2 0xF3 JUMPI DUP1 PUSH4 0xCFED246B EQ PUSH2 0x106 JUMPI DUP1 PUSH4 0xF2FDE38B EQ PUSH2 0x147 JUMPI PUSH1 0x0 DUP1 REVERT JUMPDEST DUP1 PUSH4 0x349DA417 EQ PUSH2 0x8D JUMPI DUP1 PUSH4 0x51120474 EQ PUSH2 0xB3 JUMPI DUP1 PUSH4 0x715018A6 EQ PUSH2 0xC8 JUMPI DUP1 PUSH4 0x8DA5CB5B EQ PUSH2 0xD0 JUMPI JUMPDEST PUSH1 0x0 DUP1 REVERT JUMPDEST PUSH2 0xA0 PUSH2 0x9B CALLDATASIZE PUSH1 0x4 PUSH2 0x41B JUMP JUMPDEST PUSH2 0x15A JUMP JUMPDEST PUSH1 0x40 MLOAD SWAP1 DUP2 MSTORE PUSH1 0x20 ADD JUMPDEST PUSH1 0x40 MLOAD DUP1 SWAP2 SUB SWAP1 RETURN JUMPDEST PUSH2 0xC6 PUSH2 0xC1 CALLDATASIZE PUSH1 0x4 PUSH2 0x45E JUMP JUMPDEST PUSH2 0x217 JUMP JUMPDEST STOP JUMPDEST PUSH2 0xC6 PUSH2 0x2A6 JUMP JUMPDEST PUSH1 0x0 SLOAD PUSH1 0x40 MLOAD PUSH1 0x1 PUSH1 0x1 PUSH1 0xA0 SHL SUB SWAP1 SWAP2 AND DUP2 MSTORE PUSH1 0x20 ADD PUSH2 0xAA JUMP JUMPDEST PUSH2 0xA0 PUSH2 0x2BA JUMP JUMPDEST PUSH2 0xA0 PUSH2 0x101 CALLDATASIZE PUSH1 0x4 PUSH2 0x4A4 JUMP JUMPDEST PUSH2 0x2CB JUMP JUMPDEST PUSH2 0x130 PUSH2 0x114 CALLDATASIZE PUSH1 0x4 PUSH2 0x4A4 JUMP JUMPDEST PUSH1 0x1 PUSH1 0x20 DUP2 SWAP1 MSTORE PUSH1 0x0 SWAP2 DUP3 MSTORE PUSH1 0x40 SWAP1 SWAP2 KECCAK256 DUP1 SLOAD SWAP2 ADD SLOAD PUSH1 0xFF AND DUP3 JUMP JUMPDEST PUSH1 0x40 DUP1 MLOAD SWAP3 DUP4 MSTORE PUSH1 0xFF SWAP1 SWAP2 AND PUSH1 0x20 DUP4 ADD MSTORE ADD PUSH2 0xAA JUMP JUMPDEST PUSH2 0xC6 PUSH2 0x155 CALLDATASIZE PUSH1 0x4 PUSH2 0x4A4 JUMP JUMPDEST PUSH2 0x344 JUMP JUMPDEST PUSH1 0x0 DUP1 DUP4 PUSH2 0x168 JUMPI DUP3 PUSH2 0x16B JUMP JUMPDEST PUSH1 0x0 JUMPDEST PUSH1 0x1 PUSH1 0x1 PUSH1 0xA0 SHL SUB DUP2 AND PUSH1 0x0 SWAP1 DUP2 MSTORE PUSH1 0x1 PUSH1 0x20 DUP2 DUP2 MSTORE PUSH1 0x40 SWAP3 DUP4 SWAP1 KECCAK256 DUP4 MLOAD DUP1 DUP6 ADD SWAP1 SWAP5 MSTORE DUP1 SLOAD DUP1 DUP6 MSTORE SWAP3 ADD SLOAD PUSH1 0xFF AND SWAP1 DUP4 ADD MSTORE SWAP2 SWAP3 POP SWAP1 PUSH2 0x1E3 JUMPI PUSH1 0x40 MLOAD PUSH3 0x461BCD PUSH1 0xE5 SHL DUP2 MSTORE PUSH1 0x20 PUSH1 0x4 DUP3 ADD MSTORE PUSH1 0xD PUSH1 0x24 DUP3 ADD MSTORE PUSH13 0x141C9A58D9481B9BDD081CD95D PUSH1 0x9A SHL PUSH1 0x44 DUP3 ADD MSTORE PUSH1 0x64 ADD JUMPDEST PUSH1 0x40 MLOAD DUP1 SWAP2 SUB SWAP1 REVERT JUMPDEST PUSH1 0x0 DUP2 PUSH1 0x20 ADD MLOAD PUSH1 0xA PUSH2 0x1F6 SWAP2 SWAP1 PUSH2 0x5C2 JUMP JUMPDEST DUP3 MLOAD PUSH2 0x202 SWAP1 DUP10 PUSH2 0x5D1 JUMP JUMPDEST PUSH2 0x20C SWAP2 SWAP1 PUSH2 0x5E8 JUMP JUMPDEST SWAP8 SWAP7 POP POP POP POP POP POP POP JUMP JUMPDEST PUSH2 0x21F PUSH2 0x382 JUMP JUMPDEST PUSH1 0x40 DUP1 MLOAD DUP1 DUP3 ADD DUP3 MSTORE DUP4 DUP2 MSTORE PUSH1 0xFF DUP4 DUP2 AND PUSH1 0x20 DUP1 DUP5 ADD DUP3 DUP2 MSTORE PUSH1 0x1 PUSH1 0x1 PUSH1 0xA0 SHL SUB DUP10 AND PUSH1 0x0 DUP2 DUP2 MSTORE PUSH1 0x1 DUP1 DUP6 MSTORE SWAP1 DUP9 SWAP1 KECCAK256 SWAP7 MLOAD DUP8 SSTORE SWAP2 MLOAD SWAP6 SWAP1 SWAP2 ADD DUP1 SLOAD PUSH1 0xFF NOT AND SWAP6 SWAP1 SWAP5 AND SWAP5 SWAP1 SWAP5 OR SWAP1 SWAP3 SSTORE DUP4 MLOAD DUP7 DUP2 MSTORE SWAP2 DUP3 ADD MSTORE SWAP1 SWAP2 PUSH32 0x5CF0B3EC05876ABBFC211C445ACBA869514647943783A49E986809EF59164A0C SWAP2 ADD PUSH1 0x40 MLOAD DUP1 SWAP2 SUB SWAP1 LOG2 POP POP POP JUMP JUMPDEST PUSH2 0x2AE PUSH2 0x382 JUMP JUMPDEST PUSH2 0x2B8 PUSH1 0x0 PUSH2 0x3AF JUMP JUMPDEST JUMP JUMPDEST PUSH1 0x0 PUSH2 0x2C6 PUSH1 0x0 PUSH2 0x2CB JUMP JUMPDEST SWAP1 POP SWAP1 JUMP JUMPDEST PUSH1 0x1 PUSH1 0x1 PUSH1 0xA0 SHL SUB DUP2 AND PUSH1 0x0 SWAP1 DUP2 MSTORE PUSH1 0x1 PUSH1 0x20 DUP2 DUP2 MSTORE PUSH1 0x40 DUP1 DUP5 KECCAK256 DUP2 MLOAD DUP1 DUP4 ADD SWAP1 SWAP3 MSTORE DUP1 SLOAD DUP1 DUP4 MSTORE SWAP4 ADD SLOAD PUSH1 0xFF AND SWAP2 DUP2 ADD SWAP2 SWAP1 SWAP2 MSTORE SWAP1 PUSH2 0x33D JUMPI PUSH1 0x40 MLOAD PUSH3 0x461BCD PUSH1 0xE5 SHL DUP2 MSTORE PUSH1 0x20 PUSH1 0x4 DUP3 ADD MSTORE PUSH1 0xD PUSH1 0x24 DUP3 ADD MSTORE PUSH13 0x141C9A58D9481B9BDD081CD95D PUSH1 0x9A SHL PUSH1 0x44 DUP3 ADD MSTORE PUSH1 0x64 ADD PUSH2 0x1DA JUMP JUMPDEST MLOAD SWAP3 SWAP2 POP POP JUMP JUMPDEST PUSH2 0x34C PUSH2 0x382 JUMP JUMPDEST PUSH1 0x1 PUSH1 0x1 PUSH1 0xA0 SHL SUB DUP2 AND PUSH2 0x376 JUMPI PUSH1 0x40 MLOAD PUSH4 0x1E4FBDF7 PUSH1 0xE0 SHL DUP2 MSTORE PUSH1 0x0 PUSH1 0x4 DUP3 ADD MSTORE PUSH1 0x24 ADD PUSH2 0x1DA JUMP JUMPDEST PUSH2 0x37F DUP2 PUSH2 0x3AF JUMP JUMPDEST POP JUMP JUMPDEST PUSH1 0x0 SLOAD PUSH1 0x1 PUSH1 0x1 PUSH1 0xA0 SHL SUB AND CALLER EQ PUSH2 0x2B8 JUMPI PUSH1 0x40 MLOAD PUSH4 0x118CDAA7 PUSH1 0xE0 SHL DUP2 MSTORE CALLER PUSH1 0x4 DUP3 ADD MSTORE PUSH1 0x24 ADD PUSH2 0x1DA JUMP JUMPDEST PUSH1 0x0 DUP1 SLOAD PUSH1 0x1 PUSH1 0x1 PUSH1 0xA0 SHL SUB DUP4 DUP2 AND PUSH1 0x1 PUSH1 0x1 PUSH1 0xA0 SHL SUB NOT DUP4 AND DUP2 OR DUP5 SSTORE PUSH1 0x40 MLOAD SWAP2 SWAP1 SWAP3 AND SWAP3 DUP4 SWAP2 PUSH32 0x8BE0079C531659141344CD1FD0A4F28419497F9722A3DAAFE3B4186F6B6457E0 SWAP2 SWAP1 LOG3 POP POP JUMP JUMPDEST DUP1 CALLDATALOAD PUSH1 0x1 PUSH1 0x1 PUSH1 0xA0 SHL SUB DUP2 AND DUP2 EQ PUSH2 0x416 JUMPI PUSH1 0x0 DUP1 REVERT JUMPDEST SWAP2 SWAP1 POP JUMP JUMPDEST PUSH1 0x0 DUP1 PUSH1 0x0 PUSH1 0x60 DUP5 DUP7 SUB SLT ISZERO PUSH2 0x430 JUMPI PUSH1 0x0 DUP1 REVERT JUMPDEST DUP4 CALLDATALOAD SWAP3 POP PUSH1 0x20 DUP5 ADD CALLDATALOAD DUP1 ISZERO ISZERO DUP2 EQ PUSH2 0x447 JUMPI PUSH1 0x0 DUP1 REVERT JUMPDEST SWAP2 POP PUSH2 0x455 PUSH1 0x40 DUP6 ADD PUSH2 0x3FF JUMP JUMPDEST SWAP1 POP SWAP3 POP SWAP3 POP SWAP3 JUMP JUMPDEST PUSH1 0x0 DUP1 PUSH1 0x0 PUSH1 0x60 DUP5 DUP7 SUB SLT ISZERO PUSH2 0x473 JUMPI PUSH1 0x0 DUP1 REVERT JUMPDEST PUSH2 0x47C DUP5 PUSH2 0x3FF JUMP JUMPDEST SWAP3 POP PUSH1 0x20 DUP5 ADD CALLDATALOAD SWAP2 POP PUSH1 0x40 DUP5 ADD CALLDATALOAD PUSH1 0xFF DUP2 AND DUP2 EQ PUSH2 0x499 JUMPI PUSH1 0x0 DUP1 REVERT JUMPDEST DUP1 SWAP2 POP POP SWAP3 POP SWAP3 POP SWAP3 JUMP JUMPDEST PUSH1 0x0 PUSH1 0x20 DUP3 DUP5 SUB SLT ISZERO PUSH2 0x4B6 JUMPI PUSH1 0x0 DUP1 REVERT JUMPDEST PUSH2 0x4BF DUP3 PUSH2 0x3FF JUMP JUMPDEST SWAP4 SWAP3 POP POP POP JUMP JUMPDEST PUSH4 0x4E487B71 PUSH1 0xE0 SHL PUSH1 0x0 MSTORE PUSH1 0x11 PUSH1 0x4 MSTORE PUSH1 0x24 PUSH1 0x0 REVERT JUMPDEST PUSH1 0x1 DUP2 DUP2 JUMPDEST DUP1 DUP6 GT ISZERO PUSH2 0x517 JUMPI DUP2 PUSH1 0x0 NOT DIV DUP3 GT ISZERO PUSH2 0x4FD JUMPI PUSH2 0x4FD PUSH2 0x4C6 JUMP JUMPDEST DUP1 DUP6 AND ISZERO PUSH2 0x50A JUMPI SWAP2 DUP2 MUL SWAP2 JUMPDEST SWAP4 DUP5 SHR SWAP4 SWAP1 DUP1 MUL SWAP1 PUSH2 0x4E1 JUMP JUMPDEST POP SWAP3 POP SWAP3 SWAP1 POP JUMP JUMPDEST PUSH1 0x0 DUP3 PUSH2 0x52E JUMPI POP PUSH1 0x1 PUSH2 0x5BC JUMP JUMPDEST DUP2 PUSH2 0x53B JUMPI POP PUSH1 0x0 PUSH2 0x5BC JUMP JUMPDEST DUP2 PUSH1 0x1 DUP2 EQ PUSH2 0x551 JUMPI PUSH1 0x2 DUP2 EQ PUSH2 0x55B JUMPI PUSH2 0x577 JUMP JUMPDEST PUSH1 0x1 SWAP2 POP POP PUSH2 0x5BC JUMP JUMPDEST PUSH1 0xFF DUP5 GT ISZERO PUSH2 0x56C JUMPI PUSH2 0x56C PUSH2 0x4C6 JUMP JUMPDEST POP POP PUSH1 0x1 DUP3 SHL PUSH2 0x5BC JUMP JUMPDEST POP PUSH1 0x20 DUP4 LT PUSH2 0x133 DUP4 LT AND PUSH1 0x4E DUP5 LT PUSH1 0xB DUP5 LT AND OR ISZERO PUSH2 0x59A JUMPI POP DUP2 DUP2 EXP PUSH2 0x5BC JUMP JUMPDEST PUSH2 0x5A4 DUP4 DUP4 PUSH2 0x4DC JUMP JUMPDEST DUP1 PUSH1 0x0 NOT DIV DUP3 GT ISZERO PUSH2 0x5B8 JUMPI PUSH2 0x5B8 PUSH2 0x4C6 JUMP JUMPDEST MUL SWAP1 POP JUMPDEST SWAP3 SWAP2 POP POP JUMP JUMPDEST PUSH1 0x0 PUSH2 0x4BF PUSH1 0xFF DUP5 AND DUP4 PUSH2 0x51F JUMP JUMPDEST DUP1 DUP3 MUL DUP2 ISZERO DUP3 DUP3 DIV DUP5 EQ OR PUSH2 0x5BC JUMPI PUSH2 0x5BC PUSH2 0x4C6 JUMP JUMPDEST PUSH1 0x0 DUP3 PUSH2 0x605 JUMPI PUSH4 0x4E487B71 PUSH1 0xE0 SHL PUSH1 0x0 MSTORE PUSH1 0x12 PUSH1 0x4 MSTORE PUSH1 0x24 PUSH1 0x0 REVERT JUMPDEST POP DIV SWAP1 JUMP INVALID LOG2 PUSH5 0x6970667358 0x22 SLT KECCAK256 DUP7 JUMP 0xCF SWAP13 0xAC 0xBC DUP1 CALLER 0xBE SWAP16 0xC9 STATICCALL BYTE 0xD8 SDIV 0xDE 0xEF 0xE0 0xC AND DELEGATECALL DUP15 CALLDATASIZE 0xC3 SWAP2 DIV 0xCD ADDMOD DUP2 0xA9 NUMBER 0xF PUSH5 0x736F6C6343 STOP ADDMOD EQ STOP CALLER "},"gasEstimates":{"creation":{"codeDepositCost":"320000","executionCost":"72650","totalCost":"392650"},"external":{"convertToUSD(uint256,bool,address)":"infinite","getERC20Price(address)":"4828","getETHPrice()":"4669","owner()":"2368","prices(address)":"4714","renounceOwnership()":"infinite","setPrice(address,uint256,uint8)":"50818","transferOwnership(address)":"28399"}},"methodIdentifiers":{"convertToUSD(uint256,bool,address)":"349da417","getERC20Price(address)":"b8cb21aa","getETHPrice()":"a607a8d9","owner()":"8da5cb5b","prices(address)":"cfed246b","renounceOwnership()":"715018a6","setPrice(address,uint256,uint8)":"51120474","transferOwnership(address)":"f2fde38b"}},"storageLayout":{"storage":[{"astId":8,"contract":"contracts/oracle/MockPriceOracle.sol:MockPriceOracle","label":"_owner","offset":0,"slot":"0","type":"t_address"},{"astId":7854,"contract":"contracts/oracle/MockPriceOracle.sol:MockPriceOracle","label":"prices","offset":0,"slot":"1","type":"t_mapping(t_address,t_struct(TokenPrice)7849_storage)"}],"types":{"t_address":{"encoding":"inplace","label":"address","numberOfBytes":"20"},"t_mapping(t_address,t_struct(TokenPrice)7849_storage)":{"encoding":"mapping","key":"t_address","label":"mapping(address => struct MockPriceOracle.TokenPrice)","numberOfBytes":"32","value":"t_struct(TokenPrice)7849_storage"},"t_struct(TokenPrice)7849_storage":{"encoding":"inplace","label":"struct MockPriceOracle.TokenPrice","members":[{"astId":7846,"contract":"contracts/oracle/MockPriceOracle.sol:MockPriceOracle","label":"price","offset":0,"slot":"0","type":"t_uint256"},{"astId":7848,"contract":"contracts/oracle/MockPriceOracle.sol:MockPriceOracle","label":"decimals","offset":0,"slot":"1","type":"t_uint8"}],"numberOfBytes":"64"},"t_uint256":{"encoding":"inplace","label":"uint256","numberOfBytes":"32"},"t_uint8":{"encoding":"inplace","label":"uint8","numberOfBytes":"1"}}},"userdoc":{"kind":"user","methods":{},"version":1}}}}