{
  "_format": "hh-sol-artifact-1",
  "contractName": "MockPriceOracle",
  "sourceName": "contracts/oracle/MockPriceOracle.sol",
  "abi": [
    {
      "inputs": [],
      "stateMutability": "nonpayable",
      "type": "constructor"
    },
    {
      "inputs": [
        {
          "internalType": "address",
          "name": "owner",
          "type": "address"
        }
      ],
      "name": "OwnableInvalidOwner",
      "type": "error"
    },
    {
      "inputs": [
        {
          "internalType": "address",
          "name": "account",
          "type": "address"
        }
      ],
      "name": "OwnableUnauthorizedAccount",
      "type": "error"
    },
    {
      "anonymous": false,
      "inputs": [
        {
          "indexed": true,
          "internalType": "address",
          "name": "previousOwner",
          "type": "address"
        },
        {
          "indexed": true,
          "internalType": "address",
          "name": "newOwner",
          "type": "address"
        }
      ],
      "name": "OwnershipTransferred",
      "type": "event"
    },
    {
      "anonymous": false,
      "inputs": [
        {
          "indexed": true,
          "internalType": "address",
          "name": "token",
          "type": "address"
        },
        {
          "indexed": false,
          "internalType": "uint256",
          "name": "price",
          "type": "uint256"
        },
        {
          "indexed": false,
          "internalType": "uint8",
          "name": "decimals",
          "type": "uint8"
        }
      ],
      "name": "PriceUpdated",
      "type": "event"
    },
    {
      "inputs": [
        {
          "internalType": "uint256",
          "name": "amount",
          "type": "uint256"
        },
        {
          "internalType": "bool",
          "name": "isETH",
          "type": "bool"
        },
        {
          "internalType": "address",
          "name": "token",
          "type": "address"
        }
      ],
      "name": "convertToUSD",
      "outputs": [
        {
          "internalType": "uint256",
          "name": "",
          "type": "uint256"
        }
      ],
      "stateMutability": "view",
      "type": "function"
    },
    {
      "inputs": [
        {
          "internalType": "address",
          "name": "token",
          "type": "address"
        }
      ],
      "name": "getERC20Price",
      "outputs": [
        {
          "internalType": "uint256",
          "name": "",
          "type": "uint256"
        }
      ],
      "stateMutability": "view",
      "type": "function"
    },
    {
      "inputs": [],
      "name": "getETHPrice",
      "outputs": [
        {
          "internalType": "uint256",
          "name": "",
          "type": "uint256"
        }
      ],
      "stateMutability": "view",
      "type": "function"
    },
    {
      "inputs": [],
      "name": "owner",
      "outputs": [
        {
          "internalType": "address",
          "name": "",
          "type": "address"
        }
      ],
      "stateMutability": "view",
      "type": "function"
    },
    {
      "inputs": [
        {
          "internalType": "address",
          "name": "",
          "type": "address"
        }
      ],
      "name": "prices",
      "outputs": [
        {
          "internalType": "uint256",
          "name": "price",
          "type": "uint256"
        },
        {
          "internalType": "uint8",
          "name": "decimals",
          "type": "uint8"
        }
      ],
      "stateMutability": "view",
      "type": "function"
    },
    {
      "inputs": [],
      "name": "renounceOwnership",
      "outputs": [],
      "stateMutability": "nonpayable",
      "type": "function"
    },
    {
      "inputs": [
        {
          "internalType": "address",
          "name": "token",
          "type": "address"
        },
        {
          "internalType": "uint256",
          "name": "price",
          "type": "uint256"
        },
        {
          "internalType": "uint8",
          "name": "decimals",
          "type": "uint8"
        }
      ],
      "name": "setPrice",
      "outputs": [],
      "stateMutability": "nonpayable",
      "type": "function"
    },
    {
      "inputs": [
        {
          "internalType": "address",
          "name": "newOwner",
          "type": "address"
        }
      ],
      "name": "transferOwnership",
      "outputs": [],
      "stateMutability": "nonpayable",
      "type": "function"
    }
  ],
  "bytecode": "0x608060405234801561001057600080fd5b50338061003757604051631e4fbdf760e01b81526000600482015260240160405180910390fd5b610040816100c1565b5060408051808201909152642e90edd000815260086020808301918252600080526001905290517fa6eef7e35abe7026729641147f7915573c7e97b47efa546f5f6e3230263bcb4955517fa6eef7e35abe7026729641147f7915573c7e97b47efa546f5f6e3230263bcb4a805460ff191660ff909216919091179055610111565b600080546001600160a01b038381166001600160a01b0319831681178455604051919092169283917f8be0079c531659141344cd1fd0a4f28419497f9722a3daafe3b4186f6b6457e09190a35050565b610640806101206000396000f3fe608060405234801561001057600080fd5b50600436106100885760003560e01c8063a607a8d91161005b578063a607a8d9146100eb578063b8cb21aa146100f3578063cfed246b14610106578063f2fde38b1461014757600080fd5b8063349da4171461008d57806351120474146100b3578063715018a6146100c85780638da5cb5b146100d0575b600080fd5b6100a061009b36600461041b565b61015a565b6040519081526020015b60405180910390f35b6100c66100c136600461045e565b610217565b005b6100c66102a6565b6000546040516001600160a01b0390911681526020016100aa565b6100a06102ba565b6100a06101013660046104a4565b6102cb565b6101306101143660046104a4565b6001602081905260009182526040909120805491015460ff1682565b6040805192835260ff9091166020830152016100aa565b6100c66101553660046104a4565b610344565b60008083610168578261016b565b60005b6001600160a01b0381166000908152600160208181526040928390208351808501909452805480855292015460ff1690830152919250906101e35760405162461bcd60e51b815260206004820152600d60248201526c141c9a58d9481b9bdd081cd95d609a1b60448201526064015b60405180910390fd5b60008160200151600a6101f691906105c2565b825161020290896105d1565b61020c91906105e8565b979650505050505050565b61021f610382565b60408051808201825283815260ff83811660208084018281526001600160a01b038916600081815260018085529088902096518755915195909101805460ff1916959094169490941790925583518681529182015290917f5cf0b3ec05876abbfc211c445acba869514647943783a49e986809ef59164a0c910160405180910390a2505050565b6102ae610382565b6102b860006103af565b565b60006102c660006102cb565b905090565b6001600160a01b03811660009081526001602081815260408084208151808301909252805480835293015460ff16918101919091529061033d5760405162461bcd60e51b815260206004820152600d60248201526c141c9a58d9481b9bdd081cd95d609a1b60448201526064016101da565b5192915050565b61034c610382565b6001600160a01b03811661037657604051631e4fbdf760e01b8152600060048201526024016101da565b61037f816103af565b50565b6000546001600160a01b031633146102b85760405163118cdaa760e01b81523360048201526024016101da565b600080546001600160a01b038381166001600160a01b0319831681178455604051919092169283917f8be0079c531659141344cd1fd0a4f28419497f9722a3daafe3b4186f6b6457e09190a35050565b80356001600160a01b038116811461041657600080fd5b919050565b60008060006060848603121561043057600080fd5b833592506020840135801515811461044757600080fd5b9150610455604085016103ff565b90509250925092565b60008060006060848603121561047357600080fd5b61047c846103ff565b925060208401359150604084013560ff8116811461049957600080fd5b809150509250925092565b6000602082840312156104b657600080fd5b6104bf826103ff565b9392505050565b634e487b7160e01b600052601160045260246000fd5b600181815b808511156105175781600019048211156104fd576104fd6104c6565b8085161561050a57918102915b93841c93908002906104e1565b509250929050565b60008261052e575060016105bc565b8161053b575060006105bc565b8160018114610551576002811461055b57610577565b60019150506105bc565b60ff84111561056c5761056c6104c6565b50506001821b6105bc565b5060208310610133831016604e8410600b841016171561059a575081810a6105bc565b6105a483836104dc565b80600019048211156105b8576105b86104c6565b0290505b92915050565b60006104bf60ff84168361051f565b80820281158282048414176105bc576105bc6104c6565b60008261060557634e487b7160e01b600052601260045260246000fd5b50049056fea26469706673582212208656cf9cacbc8033be9fc9fa1ad805deefe00c16f48e36c39104cd0881a9430f64736f6c63430008140033",
  "linkReferences": {},
  "deployedLinkReferences": {}
}