{
  "_format": "hh-sol-artifact-1",
  "contractName": "SimpleERC20",
  "sourceName": "contracts/SimpleERC20.sol",
  "abi": [
    {
      "inputs": [
        {
          "internalType": "string",
          "name": "_name",
          "type": "string"
        },
        {
          "internalType": "string",
          "name": "_symbol",
          "type": "string"
        },
        {
          "internalType": "uint8",
          "name": "_decimals",
          "type": "uint8"
        },
        {
          "internalType": "uint256",
          "name": "_initialSupply",
          "type": "uint256"
        }
      ],
      "stateMutability": "nonpayable",
      "type": "constructor"
    },
    {
      "anonymous": false,
      "inputs": [
        {
          "indexed": true,
          "internalType": "address",
          "name": "owner",
          "type": "address"
        },
        {
          "indexed": true,
          "internalType": "address",
          "name": "spender",
          "type": "address"
        },
        {
          "indexed": false,
          "internalType": "uint256",
          "name": "value",
          "type": "uint256"
        }
      ],
      "name": "Approval",
      "type": "event"
    },
    {
      "anonymous": false,
      "inputs": [
        {
          "indexed": true,
          "internalType": "address",
          "name": "to",
          "type": "address"
        },
        {
          "indexed": false,
          "internalType": "uint256",
          "name": "amount",
          "type": "uint256"
        }
      ],
      "name": "Mint",
      "type": "event"
    },
    {
      "anonymous": false,
      "inputs": [
        {
          "indexed": true,
          "internalType": "address",
          "name": "from",
          "type": "address"
        },
        {
          "indexed": true,
          "internalType": "address",
          "name": "to",
          "type": "address"
        },
        {
          "indexed": false,
          "internalType": "uint256",
          "name": "value",
          "type": "uint256"
        }
      ],
      "name": "Transfer",
      "type": "event"
    },
    {
      "inputs": [
        {
          "internalType": "address",
          "name": "owner",
          "type": "address"
        },
        {
          "internalType": "address",
          "name": "spender",
          "type": "address"
        }
      ],
      "name": "allowance",
      "outputs": [
        {
          "internalType": "uint256",
          "name": "",
          "type": "uint256"
        }
      ],
      "stateMutability": "view",
      "type": "function"
    },
    {
      "inputs": [
        {
          "internalType": "address",
          "name": "spender",
          "type": "address"
        },
        {
          "internalType": "uint256",
          "name": "amount",
          "type": "uint256"
        }
      ],
      "name": "approve",
      "outputs": [
        {
          "internalType": "bool",
          "name": "",
          "type": "bool"
        }
      ],
      "stateMutability": "nonpayable",
      "type": "function"
    },
    {
      "inputs": [
        {
          "internalType": "address",
          "name": "account",
          "type": "address"
        }
      ],
      "name": "balanceOf",
      "outputs": [
        {
          "internalType": "uint256",
          "name": "",
          "type": "uint256"
        }
      ],
      "stateMutability": "view",
      "type": "function"
    },
    {
      "inputs": [
        {
          "internalType": "uint256",
          "name": "amount",
          "type": "uint256"
        }
      ],
      "name": "burn",
      "outputs": [],
      "stateMutability": "nonpayable",
      "type": "function"
    },
    {
      "inputs": [],
      "name": "decimals",
      "outputs": [
        {
          "internalType": "uint8",
          "name": "",
          "type": "uint8"
        }
      ],
      "stateMutability": "view",
      "type": "function"
    },
    {
      "inputs": [
        {
          "internalType": "address",
          "name": "to",
          "type": "address"
        },
        {
          "internalType": "uint256",
          "name": "amount",
          "type": "uint256"
        }
      ],
      "name": "mint",
      "outputs": [],
      "stateMutability": "nonpayable",
      "type": "function"
    },
    {
      "inputs": [],
      "name": "name",
      "outputs": [
        {
          "internalType": "string",
          "name": "",
          "type": "string"
        }
      ],
      "stateMutability": "view",
      "type": "function"
    },
    {
      "inputs": [],
      "name": "owner",
      "outputs": [
        {
          "internalType": "address",
          "name": "",
          "type": "address"
        }
      ],
      "stateMutability": "view",
      "type": "function"
    },
    {
      "inputs": [],
      "name": "symbol",
      "outputs": [
        {
          "internalType": "string",
          "name": "",
          "type": "string"
        }
      ],
      "stateMutability": "view",
      "type": "function"
    },
    {
      "inputs": [],
      "name": "totalSupply",
      "outputs": [
        {
          "internalType": "uint256",
          "name": "",
          "type": "uint256"
        }
      ],
      "stateMutability": "view",
      "type": "function"
    },
    {
      "inputs": [
        {
          "internalType": "address",
          "name": "to",
          "type": "address"
        },
        {
          "internalType": "uint256",
          "name": "amount",
          "type": "uint256"
        }
      ],
      "name": "transfer",
      "outputs": [
        {
          "internalType": "bool",
          "name": "",
          "type": "bool"
        }
      ],
      "stateMutability": "nonpayable",
      "type": "function"
    },
    {
      "inputs": [
        {
          "internalType": "address",
          "name": "from",
          "type": "address"
        },
        {
          "internalType": "address",
          "name": "to",
          "type": "address"
        },
        {
          "internalType": "uint256",
          "name": "amount",
          "type": "uint256"
        }
      ],
      "name": "transferFrom",
      "outputs": [
        {
          "internalType": "bool",
          "name": "",
          "type": "bool"
        }
      ],
      "stateMutability": "nonpayable",
      "type": "function"
    },
    {
      "inputs": [
        {
          "internalType": "address",
          "name": "newOwner",
          "type": "address"
        }
      ],
      "name": "transferOwnership",
      "outputs": [],
      "stateMutability": "nonpayable",
      "type": "function"
    }
  ],
  "bytecode": "0x60806040523480156200001157600080fd5b506040516200118138038062001181833981016040819052620000349162000279565b600062000042858262000393565b50600162000051848262000393565b506002805460ff841660ff199091168117909155600480546001600160a01b031916339081179091556200009e916200008c90600a62000574565b6200009890846200058c565b620000a8565b50505050620005bc565b6001600160a01b038216620001035760405162461bcd60e51b815260206004820152601f60248201527f45524332303a206d696e7420746f20746865207a65726f206164647265737300604482015260640160405180910390fd5b8060036000828254620001179190620005a6565b90915550506001600160a01b0382166000818152600560209081526040808320805486019055518481527fddf252ad1be2c89b69c2b068fc378daa952ba7f163c4a11628f55a4df523b3ef910160405180910390a3816001600160a01b03167f0f6798a560793a54c3bcfe86a93cde1e73087d944c0ea20544137d412139688582604051620001a891815260200190565b60405180910390a25050565b634e487b7160e01b600052604160045260246000fd5b600082601f830112620001dc57600080fd5b81516001600160401b0380821115620001f957620001f9620001b4565b604051601f8301601f19908116603f01168101908282118183101715620002245762000224620001b4565b816040528381526020925086838588010111156200024157600080fd5b600091505b8382101562000265578582018301518183018401529082019062000246565b600093810190920192909252949350505050565b600080600080608085870312156200029057600080fd5b84516001600160401b0380821115620002a857600080fd5b620002b688838901620001ca565b95506020870151915080821115620002cd57600080fd5b50620002dc87828801620001ca565b935050604085015160ff81168114620002f457600080fd5b6060959095015193969295505050565b600181811c908216806200031957607f821691505b6020821081036200033a57634e487b7160e01b600052602260045260246000fd5b50919050565b601f8211156200038e57600081815260208120601f850160051c81016020861015620003695750805b601f850160051c820191505b818110156200038a5782815560010162000375565b5050505b505050565b81516001600160401b03811115620003af57620003af620001b4565b620003c781620003c0845462000304565b8462000340565b602080601f831160018114620003ff5760008415620003e65750858301515b600019600386901b1c1916600185901b1785556200038a565b600085815260208120601f198616915b8281101562000430578886015182559484019460019091019084016200040f565b50858210156200044f5787850151600019600388901b60f8161c191681555b5050505050600190811b01905550565b634e487b7160e01b600052601160045260246000fd5b600181815b80851115620004b65781600019048211156200049a576200049a6200045f565b80851615620004a857918102915b93841c93908002906200047a565b509250929050565b600082620004cf575060016200056e565b81620004de575060006200056e565b8160018114620004f75760028114620005025762000522565b60019150506200056e565b60ff8411156200051657620005166200045f565b50506001821b6200056e565b5060208310610133831016604e8410600b841016171562000547575081810a6200056e565b62000553838362000475565b80600019048211156200056a576200056a6200045f565b0290505b92915050565b60006200058560ff841683620004be565b9392505050565b80820281158282048414176200056e576200056e6200045f565b808201808211156200056e576200056e6200045f565b610bb580620005cc6000396000f3fe608060405234801561001057600080fd5b50600436106100cf5760003560e01c806342966c681161008c57806395d89b411161006657806395d89b41146101da578063a9059cbb146101e2578063dd62ed3e146101f5578063f2fde38b1461022e57600080fd5b806342966c681461017357806370a08231146101865780638da5cb5b146101af57600080fd5b806306fdde03146100d4578063095ea7b3146100f257806318160ddd1461011557806323b872dd1461012c578063313ce5671461013f57806340c10f191461015e575b600080fd5b6100dc610241565b6040516100e991906109a5565b60405180910390f35b610105610100366004610a0f565b6102cf565b60405190151581526020016100e9565b61011e60035481565b6040519081526020016100e9565b61010561013a366004610a39565b6102e6565b60025461014c9060ff1681565b60405160ff90911681526020016100e9565b61017161016c366004610a0f565b610308565b005b610171610181366004610a75565b610349565b61011e610194366004610a8e565b6001600160a01b031660009081526005602052604090205490565b6004546101c2906001600160a01b031681565b6040516001600160a01b0390911681526020016100e9565b6100dc610356565b6101056101f0366004610a0f565b610363565b61011e610203366004610ab0565b6001600160a01b03918216600090815260066020908152604080832093909416825291909152205490565b61017161023c366004610a8e565b610370565b6000805461024e90610ae3565b80601f016020809104026020016040519081016040528092919081815260200182805461027a90610ae3565b80156102c75780601f1061029c576101008083540402835291602001916102c7565b820191906000526020600020905b8154815290600101906020018083116102aa57829003601f168201915b505050505081565b60006102dc338484610412565b5060015b92915050565b60006102f3843384610537565b6102fe8484846105c9565b5060019392505050565b6004546001600160a01b0316331461033b5760405162461bcd60e51b815260040161033290610b1d565b60405180910390fd5b6103458282610775565b5050565b6103533382610879565b50565b6001805461024e90610ae3565b60006102dc3384846105c9565b6004546001600160a01b0316331461039a5760405162461bcd60e51b815260040161033290610b1d565b6001600160a01b0381166103f05760405162461bcd60e51b815260206004820152601d60248201527f4e6577206f776e657220697320746865207a65726f20616464726573730000006044820152606401610332565b600480546001600160a01b0319166001600160a01b0392909216919091179055565b6001600160a01b0383166104745760405162461bcd60e51b8152602060048201526024808201527f45524332303a20617070726f76652066726f6d20746865207a65726f206164646044820152637265737360e01b6064820152608401610332565b6001600160a01b0382166104d55760405162461bcd60e51b815260206004820152602260248201527f45524332303a20617070726f766520746f20746865207a65726f206164647265604482015261737360f01b6064820152608401610332565b6001600160a01b0383811660008181526006602090815260408083209487168084529482529182902085905590518481527f8c5be1e5ebec7d5bd14f71427d1e84f3dd0314c0f7b2291e5b200ac8c7c3b92591015b60405180910390a3505050565b6001600160a01b0383811660009081526006602090815260408083209386168352929052205460001981146105c357818110156105b65760405162461bcd60e51b815260206004820152601d60248201527f45524332303a20696e73756666696369656e7420616c6c6f77616e63650000006044820152606401610332565b6105c38484848403610412565b50505050565b6001600160a01b03831661062d5760405162461bcd60e51b815260206004820152602560248201527f45524332303a207472616e736665722066726f6d20746865207a65726f206164604482015264647265737360d81b6064820152608401610332565b6001600160a01b03821661068f5760405162461bcd60e51b815260206004820152602360248201527f45524332303a207472616e7366657220746f20746865207a65726f206164647260448201526265737360e81b6064820152608401610332565b6001600160a01b038316600090815260056020526040902054818110156107075760405162461bcd60e51b815260206004820152602660248201527f45524332303a207472616e7366657220616d6f756e7420657863656564732062604482015265616c616e636560d01b6064820152608401610332565b6001600160a01b0380851660008181526005602052604080822086860390559286168082529083902080548601905591517fddf252ad1be2c89b69c2b068fc378daa952ba7f163c4a11628f55a4df523b3ef906107679086815260200190565b60405180910390a350505050565b6001600160a01b0382166107cb5760405162461bcd60e51b815260206004820152601f60248201527f45524332303a206d696e7420746f20746865207a65726f2061646472657373006044820152606401610332565b80600360008282546107dd9190610b5e565b90915550506001600160a01b0382166000818152600560209081526040808320805486019055518481527fddf252ad1be2c89b69c2b068fc378daa952ba7f163c4a11628f55a4df523b3ef910160405180910390a3816001600160a01b03167f0f6798a560793a54c3bcfe86a93cde1e73087d944c0ea20544137d41213968858260405161086d91815260200190565b60405180910390a25050565b6001600160a01b0382166108d95760405162461bcd60e51b815260206004820152602160248201527f45524332303a206275726e2066726f6d20746865207a65726f206164647265736044820152607360f81b6064820152608401610332565b6001600160a01b0382166000908152600560205260409020548181101561094d5760405162461bcd60e51b815260206004820152602260248201527f45524332303a206275726e20616d6f756e7420657863656564732062616c616e604482015261636560f01b6064820152608401610332565b6001600160a01b03831660008181526005602090815260408083208686039055600380548790039055518581529192917fddf252ad1be2c89b69c2b068fc378daa952ba7f163c4a11628f55a4df523b3ef910161052a565b600060208083528351808285015260005b818110156109d2578581018301518582016040015282016109b6565b506000604082860101526040601f19601f8301168501019250505092915050565b80356001600160a01b0381168114610a0a57600080fd5b919050565b60008060408385031215610a2257600080fd5b610a2b836109f3565b946020939093013593505050565b600080600060608486031215610a4e57600080fd5b610a57846109f3565b9250610a65602085016109f3565b9150604084013590509250925092565b600060208284031215610a8757600080fd5b5035919050565b600060208284031215610aa057600080fd5b610aa9826109f3565b9392505050565b60008060408385031215610ac357600080fd5b610acc836109f3565b9150610ada602084016109f3565b90509250929050565b600181811c90821680610af757607f821691505b602082108103610b1757634e487b7160e01b600052602260045260246000fd5b50919050565b60208082526021908201527f4f6e6c79206f776e65722063616e2063616c6c20746869732066756e6374696f6040820152603760f91b606082015260800190565b808201808211156102e057634e487b7160e01b600052601160045260246000fdfea2646970667358221220997875693d0e38ed7b78846583c0c06c740380e81129b7c6e063e45c4cff94ae64736f6c63430008130033",
  "linkReferences": {},
  "deployedLinkReferences": {}
}